S00C00006D61696E2E7372656373
S3151FFF0000F8FF00201104FF1F4B15FF1F4B15FF1F86
S3151FFF00104B15FF1F4B15FF1F4B15FF1F4B15FF1FC4
S3151FFF00204B15FF1F4B15FF1F4B15FF1F4B15FF1FB4
S3151FFF00304B15FF1F4B15FF1F4B15FF1F4B15FF1FA4
S3151FFF00404B15FF1F4B15FF1F4B15FF1F4B15FF1F94
S3151FFF00504B15FF1F4B15FF1F4B15FF1F4B15FF1F84
S3151FFF00604B15FF1F4B15FF1F4B15FF1F4B15FF1F74
S3151FFF00704B15FF1F4B15FF1F4B15FF1F4B15FF1F64
S3151FFF00804B15FF1F4B15FF1F4B15FF1F4B15FF1F54
S3151FFF00904B15FF1F4B15FF1F4B15FF1F4B15FF1F44
S3151FFF00A04B15FF1F4B15FF1F4B15FF1F4B15FF1F34
S3151FFF00B04B15FF1F4B15FF1F4B15FF1F4B15FF1F24
S3151FFF00C04B15FF1F4B15FF1F4B15FF1F4B15FF1F14
S3151FFF00D04B15FF1F4B15FF1F4B15FF1F4B15FF1F04
S3151FFF00E04B15FF1F4B15FF1F4B15FF1F4B15FF1FF4
S3151FFF00F04B15FF1F4B15FF1F4B15FF1F4B15FF1FE4
S3151FFF01004B15FF1F4B15FF1F4B15FF1F4B15FF1FD3
S3151FFF01104B15FF1F4B15FF1F4B15FF1F4B15FF1FC3
S3151FFF01204B15FF1F4B15FF1F4B15FF1F4B15FF1FB3
S3151FFF01304B15FF1F4B15FF1F4B15FF1F4B15FF1FA3
S3151FFF01404B15FF1F4B15FF1F4B15FF1F4B15FF1F93
S3151FFF01503921FF1F4B15FF1F4B15FF1F4B15FF1F89
S3151FFF01604B15FF1F4B15FF1F4B15FF1F4B15FF1F73
S3151FFF01704B15FF1F4B15FF1F4B15FF1F4B15FF1F63
S3151FFF01804B15FF1F4B15FF1F4B15FF1F4B15FF1F53
S3151FFF01904B15FF1F4B15FF1F4B15FF1F4B15FF1F43
S3151FFF0400FFFFFFFFFFFFFFFFFFFFFFFFFEFFFFFFD9
S3151FFF04104FF000004FF000014FF000024FF00003B6
S3151FFF04204FF000044FF000054FF000064FF0000796
S3151FFF04304FF000084FF000094FF0000A4FF0000B76
S3151FFF04404FF0000C62B603F03BFBFEE70821DFF817
S3151FFF0450E425126852F08002DFF8D8351A6000BF14
S3151FFF046000BF00BF00BF00BFDFF8C825126832F408
S3151FFF04708062DFF8C0351A6000BF00BF00BF00BF34
S3151FFF048000BF0A00511ED2B2002A2AD0020609D582
S3151FFF0490DFF8A02512684FF400731A43DFF894356F
S3151FFF04A01A6007E0DFF88C25126832F40072DFF856
S3151FFF04B084351A60DFF87C25126852F48062DFF8F4
S3151FFF04C074351A6000BF00BF00BF00BF00BFDFF853
S3151FFF04D06425126832F48062DFF858351A604000CF
S3151FFF04E0CFE770470821DFF84C25126832F08002EC
S3151FFF04F0DFF840351A60DFF83C25126832F4806258
S3151FFF0500DFF830351A600A00511ED2B2002A2AD0F0
S3151FFF0510020609D5DFF81C2512684FF400731A432C
S3151FFF0520DFF810351A6007E0DFF80825126832F486
S3151FFF05300072DFF800351A60DFF8F824126852F4EC
S3151FFF05408062DFF8F0341A6000BF00BF00BF00BF34
S3151FFF055000BFDFF8E024126832F48062DFF8D4347C
S3151FFF05601A604000CFE7704738B504000D00B5F19C
S3151FFF05705000C0B2FFF7B6FFE4B2200950F01000DB
S3151FFF0580C0B2FFF7AFFF14F00F0050F00100C0B26B
S3151FFF0590FFF7A8FF31BD70B5040000200500EDB2BF
S3151FFF05A0082D17D2B5F15000C0B2FFF79BFF0120F0
S3151FFF05B0FFF798FF1020FFF795FF00200600F6B202
S3151FFF05C0802E05D22000C0B2FFF740FF761CF6E74C
S3151FFF05D06D1CE4E770BD38B500200400E4B2082C9B
S3151FFF05E016D2B4F15000C0B2FFF77CFF0120FFF710
S3151FFF05F079FF1020FFF776FF00200500EDB2802D53
S3151FFF060004D20020FFF722FF6D1CF7E7641CE5E706
S3151FFF061031BD38B504000D00B5F15000C0B2FFF76C
S3151FFF062061FF0120FFF75EFF1020FFF75BFF290029
S3151FFF0630C9B22000C0B2FFF797FFE4B2802C04D2E5
S3151FFF06400020FFF703FF641CF7E731BD80B20028C8
S3151FFF065009D042F2107211000A00511E92B2002AEF
S3151FFF0660FAD1401EF2E7704780B5DFF8CC034FF48F
S3151FFF067080710160DFF8C4034FF480710160DFF8FA
S3151FFF0680C0034FF480710160DFF8B8034FF4807128
S3151FFF06900160DFF8B4034FF4F0610160DFF89403E4
S3151FFF06A0006850F48060DFF88C130860DFF884035E
S3151FFF06B0006830F48070DFF87C1308606420FFF752
S3151FFF06C0C5FFDFF8700300684FF480710843DFF83A
S3151FFF06D064130860012303220E21032000F0F0FD9F
S3151FFF06E0012303220F21032000F0EAFD012303222A
S3151FFF06F00C21022000F0E4FD012303220D2102201D
S3151FFF070000F0DEFD012303220E21022000F0D8FD9B
S3151FFF0710012303220F21022000F0D2FD0123032212
S3151FFF07201021022000F0CCFD0123032211210220FC
S3151FFF073000F0C6FDAE20FFF7D5FE0020FFF7D2FE65
S3151FFF07401020FFF7CFFE4020FFF7CCFE8120FFF7DB
S3151FFF0750C9FECF20FFF7C6FEA120FFF7C3FEC820A5
S3151FFF0760FFF7C0FEA620FFF7BDFEA820FFF7BAFEC4
S3151FFF07703F20FFF7B7FED320FFF7B4FE0020FFF79A
S3151FFF0780B1FED520FFF7AEFE8020FFF7ABFED920C7
S3151FFF0790FFF7A8FEF120FFF7A5FEDA20FFF7A2FE5F
S3151FFF07A01220FFF79FFEDB20FFF79CFE4020FFF77F
S3151FFF07B099FE2020FFF796FE0220FFF793FE8D205E
S3151FFF07C0FFF790FE1420FFF78DFEA420FFF78AFE8A
S3151FFF07D0A620FFF787FEAF20FFF784FE0020FFF757
S3151FFF07E0DAFE00210020FFF7BFFE01BD2DE9F04114
S3151FFF07F0040088461500B5F120000700E4B27F2CE0
S3151FFF080003D30020040018F101084146C9B2200096
S3151FFF0810C0B2FFF7A9FE00200600F6B2062E0BD2C6
S3151FFF0820F6B2FFB20620DFF8C81900FB0710305CCF
S3151FFF0830FFF70CFE761CF0E7BDE8F0812DE9F843C4
S3151FFF084004000D00160000275FF000085FF0000987
S3151FFF08505FFA89F919F8060000282BD05FFA89F984
S3151FFF086019F8060020380700E4B27F2C02D30020B8
S3151FFF087004006D1C2900C9B22000C0B2FFF774FE29
S3151FFF0880002080465FFA88F8B8F1060F0ED25FFA8E
S3151FFF089088F8FFB20620DFF8581900FB071018F873
S3151FFF08A00000FFF7D3FD18F10108EBE7A41D19F1AF
S3151FFF08B00109CDE7BDE8F1832DE9FF4780460C000F
S3151FFF08C09146002500AE4846002100F06DFD0ED271
S3151FFF08D02D208DF800009DF800202100C9B240464B
S3151FFF08E0C0B2FFF783FF18F1060899F00049484683
S3151FFF08F000F06CFD8246504600F08AFD0100484617
S3151FFF090000F0B0FD07004FF47A7082450EDB4FF4FF
S3151FFF09107A709AFBF0F03030EDB200A968544FF4AD
S3151FFF09207A709AFBF0F100FB11AA6D1CBAF1640FE6
S3151FFF09300DDB64209AFBF0F03030EDB200A968544E
S3151FFF094064209AFBF0F100FB11AA6D1C0AE0BAF1B5
S3151FFF0950640F07DAEDB2002D04D0EDB200A83021E7
S3151FFF096029546D1CBAF10A0F0DDB0A209AFBF0F012
S3151FFF09703030EDB200A968540A209AFBF0F100FB54
S3151FFF098011AA6D1C0AE0BAF10A0F07DAEDB2002DA4
S3151FFF099004D0EDB200A8302129546D1CEDB200A87A
S3151FFF09A01AF1300129543800DFF8481800F0CEFD40
S3151FFF09B032D86D1CEDB200A82E2129546D1CDFF80D
S3151FFF09C03808390000F0D4FD00F000FD8246642090
S3151FFF09D09AFBF0F03030EDB200A9685464209AFB01
S3151FFF09E0F0F100FB11AA6D1CBAF1010F0BDB0A20F8
S3151FFF09F09AFBF0F03030EDB200A968540A209AFB3B
S3151FFF0A00F0F100FB11AABAF1000F05D46D1CEDB270
S3151FFF0A1000A81AF1300129546D1CEDB200A8002160
S3151FFF0A20295432002100C9B24046C0B2FFF706FF64
S3151FFF0A30BDE8FF8780F00F4028B0044024B0044074
S3151FFF0A4020B004401CB0044094F00F40F0B5A1B095
S3151FFF0A5004000D0000A8802100F0F6FD4FF4F052B0
S3151FFF0A600021280000F0F3FD00200600F6B2802EBD
S3151FFF0A701AD2F6B234F816003C2148434FF4487198
S3151FFF0A8090FBF1F0F6B200A97054F6B200A8305CE5
S3151FFF0A90D0F13B000700F6B2FFB2802000FB0750E4
S3151FFF0AA001213154761CE1E721B0F0BD2DE9F24F4C
S3151FFF0AB082B004001500BDF8080080B2C008ADF86B
S3151FFF0AC00000BDF80800082190FBF1F202FB11029E
S3151FFF0AD0924600200700BDF80000BFB2874233D2FF
S3151FFF0AE03900C9B20020FFF73FFDF80083460020FB
S3151FFF0AF080461FFA88F8ADB2A84523D2002006000C
S3151FFF0B00002081461FFA89F9B9F1080F13D2F6B2F1
S3151FFF0B1076081FFA88F81FFA89F919FA8BF0ADB212
S3151FFF0B2005FB004018F80000012801D156F080068A
S3151FFF0B3019F10109E6E73000C0B2FFF787FC18F18C
S3151FFF0B400108D6E77F1CC6E73900C9B20020FFF7A9
S3151FFF0B500BFDF8008346002080461FFA88F8ADB2CA
S3151FFF0B60A84528D200200600002081461FFA89F9D2
S3151FFF0B701FFA8AFAD14513D2F6B276081FFA88F8FA
S3151FFF0B801FFA89F919FA8BF0ADB205FB004018F869
S3151FFF0B900000012801D156F0800619F10109E5E78A
S3151FFF0BA0F6B2DAF1080006413000C0B2FFF74EFC7D
S3151FFF0BB018F10108D1E7BDE8F78F80B5FFF70BFDE9
S3151FFF0BC0DFF83806007800280AD0022800F02A81AD
S3151FFF0BD0C0F0C180042800F0AF81C0F05781B7E194
S3151FFF0BE0DFF81C06C08B00F01DFC02000021002051
S3151FFF0BF0FFF762FEDFF80806B0F8800000F012FC70
S3151FFF0C00020000213220FFF757FEDFF8F405B0F888
S3151FFF0C10D20000F007FC020000216420FFF74CFE04
S3151FFF0C20CCA201210020FFF709FEDFF8D8050268D5
S3151FFF0C3001211420FFF740FEC7A201213220FFF733
S3151FFF0C40FDFDDFF8C405026801214620FFF734FECC
S3151FFF0C50DFF8B82502210020FFF7F0FDDFF8B0050A
S3151FFF0C60026802213220FFF727FEDFF8A82503219E
S3151FFF0C700020FFF7E3FDDFF8A005007800F0D2FBA9
S3151FFF0C80020003211820FFF717FEDFF89025032127
S3151FFF0C903220FFF7D3FDDFF88805007800F0C2FB8F
S3151FFF0CA0020003214A20FFF707FEDFF878250421FC
S3151FFF0CB00020FFF7C3FDDFF8700502680421182027
S3151FFF0CC0FFF7FAFDDFF8642504213220FFF7B6FD93
S3151FFF0CD0DFF85C05026804214A20FFF7EDFD9FA29E
S3151FFF0CE005210020FFF7AAFDDFF84805007800F071
S3151FFF0CF099FB020005213220FFF7DEFDDFF83805DD
S3151FFF0D00026806210020FFF7D7FDDFF830050268CE
S3151FFF0D1006213220FFF7D0FDDFF82405008800F0FB
S3151FFF0D2081FB020007210020FFF7C6FDDFF8140530
S3151FFF0D30008800F077FB020007213220FFF7BCFD7A
S3151FFF0D40DFF80405008800F06DFB02000721642011
S3151FFF0D50FFF7B2FDFCE0DFF8F404B0F9000000F086
S3151FFF0D6057FB020000210020FFF7A6FDDFF8E00476
S3151FFF0D70B0F9000000F04CFB020000213C20FFF7FA
S3151FFF0D809BFDDFF8D02401210020FFF757FDDFF879
S3151FFF0D90C804026801213C20FFF78EFDDFF8BC2443
S3151FFF0DA002210020FFF74AFDDFF8B404B0F9000067
S3151FFF0DB000F02EFB020002213C20FFF77DFDDFF82E
S3151FFF0DC0A42403210020FFF739FDDFF89C04B0F9A7
S3151FFF0DD0000000F01DFB020003213C20FFF76CFD06
S3151FFF0DE0DFF88804B0F9000000F012FB02000421AF
S3151FFF0DF00020FFF761FDDFF87804B0F9000000F06F
S3151FFF0E0007FB020004213220FFF756FDDFF86404BB
S3151FFF0E10B0F9000000F0FCFA020004216420FFF77E
S3151FFF0E204BFD95E02A22DFF8500401780020FFF7DB
S3151FFF0E30DDFCDFF8482400210620FFF7FFFCDFF863
S3151FFF0E404004026800213C20FFF736FD43A2012123
S3151FFF0E500620FFF7F3FCDFF8DC03007800F0E2FA69
S3151FFF0E60020001213C20FFF727FDDFF8182402218E
S3151FFF0E700620FFF7E3FCDFF81004007800F0D2FA34
S3151FFF0E80020002213C20FFF717FD61E02A22DFF84F
S3151FFF0E90E80301780020FFF7A9FCDFF8F023002104
S3151FFF0EA00620FFF7CBFCDFF8E803026800213C2092
S3151FFF0EB0FFF702FDDFF8DC2301210620FFF7BEFC4B
S3151FFF0EC0DFF8D403026801213C20FFF7F5FCDFF8AA
S3151FFF0ED0CC2302210620FFF7B1FCDFF8C40302680B
S3151FFF0EE002213C20FFF7E8FCDFF8B8230321062089
S3151FFF0EF0FFF7A4FCDFF8B003026803213C20FFF7CE
S3151FFF0F00DBFCDFF8A82304210620FFF797FCDFF899
S3151FFF0F10A003026804213C20FFF7CEFCDFF89423D1
S3151FFF0F2005210620FFF78AFCDFF88C0302680521DF
S3151FFF0F303C20FFF7C1FC0BE0DFF88013DFF8C00290
S3151FFF0F40FFF784FD80223C21DFF87003FFF7AEFD1C
S3151FFF0F5001BD0000563A0000573A000053703A0091
S3151FFF0F6080B5DFF898020078002806D0012800F028
S3151FFF0F70C980042800F02F8139E100210020FFF7E7
S3151FFF0F8048FBDFF87C02808A00F04CFA0200002142
S3151FFF0F900020FFF791FCDFF86802B0F8800000F031
S3151FFF0FA041FA020000213220FFF786FCDFF85002CC
S3151FFF0FB0B0F8E60000F036FA020000216420FFF7C2
S3151FFF0FC07BFC01214620FFF724FBDFF83C0202686A
S3151FFF0FD001214620FFF770FC02213220FFF719FB84
S3151FFF0FE0DFF82C02026802213220FFF765FC03217E
S3151FFF0FF00020FFF70EFBDFF81C2203210020FFF75F
S3151FFF10001DFCDFF81402007800F00CFA0200032122
S3151FFF10101820FFF751FCDFF8042203213220FFF7C8
S3151FFF10200DFCDFF8FC01007800F0FCF9020003213C
S3151FFF10304A20FFF741FC04211E20FFF7EAFADFF8DB
S3151FFF1040E42104210020FFF7F9FBDFF8DC0102682A
S3151FFF105004211E20FFF730FCDFF8D02104213C209E
S3151FFF1060FFF7ECFBDFF8C801006800F0AFF980B2AD
S3151FFF107000F0D8F9020004215020FFF71DFC0521BF
S3151FFF10803220FFF7C6FADFF8AC01007800F0CAF985
S3151FFF1090020005213220FFF70FFC06210020FFF774
S3151FFF10A0B8FADFF89401026806210020FFF704FC57
S3151FFF10B0DFF88801026806213220FFF7FDFB0721B3
S3151FFF10C00020FFF7A6FADFF87801008800F0AAF9DB
S3151FFF10D0020007210020FFF7EFFBDFF868010088FA
S3151FFF10E000F0A0F9020007213220FFF7E5FBDFF82A
S3151FFF10F05801008800F096F9020007216420FFF7C8
S3151FFF1100DBFB74E000210020FFF783FADFF83C01C9
S3151FFF1110B0F9000000F07CF9020000210020FFF764
S3151FFF1120CBFBDFF82C01B0F9000000F071F90200CC
S3151FFF113000213C20FFF7C0FB01213C20FFF769FA86
S3151FFF1140DFF81401026801213C20FFF7B5FB0221DE
S3151FFF11503C20FFF75EFADFF80801B0F9000000F048
S3151FFF116057F9020002213C20FFF7A6FB03213C2073
S3151FFF1170FFF74FFADFF8F000B0F9000000F048F96B
S3151FFF1180020003213C20FFF797FB04213C20FFF7BA
S3151FFF119040FADFF8D800B0F9000000F039F9020075
S3151FFF11A004210020FFF788FBDFF8C400B0F9000019
S3151FFF11B000F02EF9020004213220FFF77DFBDFF836
S3151FFF11C0B400B0F9000000F023F9020004216420E7
S3151FFF11D0FFF772FB0BE0DFF8E410DFF82400FFF7E1
S3151FFF11E035FC80223C21DFF8D400FFF75FFC01BDF1
S3151FFF11F09437FF1F18B7D13800007A44775EFF1F59
S3151FFF1200383EFF1FF43DFF1F003EFF1F1C3DFF1F04
S3151FFF1210F83DFF1F243DFF1FC83DFF1F2C3DFF1F2E
S3151FFF1220C93DFF1F343DFF1FBC3FFF1F3C3DFF1F37
S3151FFF1230C43DFF1F745EFF1F203EFF1F143EFF1F8F
S3151FFF1240725EFF1F685EFF1F705EFF1F625EFF1FDE
S3151FFF1250645EFF1F443DFF1F243EFF1F4C3DFF1FC4
S3151FFF12606C5EFF1F543DFF1F6E5EFF1F605EFF1FFD
S3151FFF12706A5EFF1F665EFF1F785EFF1F5C3DFF1FD7
S3151FFF1280A83DFF1FD43CFF1FA43DFF1F643DFF1F4B
S3151FFF1290AC3DFF1F6C3DFF1FB03DFF1FE03CFF1F17
S3151FFF12A0B43DFF1FEC3CFF1FB83DFF1FF83CFF1F60
S3151FFF12B0BC3DFF1F043DFF1FC03DFF1F6040FF1FBB
S3151FFF12C030B4C9B2C0B2364C54F82040D2B24FF434
S3151FFF12D08075154344F82150D40705D5D2B2032A8A
S3151FFF12E002D0D2B2132A0DD1C0B22E4C54F82040D1
S3151FFF12F0646901258D40AC43C0B22A4D55F8205075
S3151FFF13006C612AE0C0B2274C54F82040646901255E
S3151FFF13108D402C43C0B2234D55F820506C61DBB274
S3151FFF1320012B0DD1C0B21F4C54F820402468012554
S3151FFF13308D402C43C0B21B4D55F820502C600CE03E
S3151FFF1340C0B2184C54F82040246801258D40AC4389
S3151FFF1350C0B2144D55F820502C6030BC704710B4E6
S3151FFF1360D2B2012A0DD1C0B20E4B53F820301B68E3
S3151FFF137001248C402343C0B20A4C54F820402360FB
S3151FFF13800CE0C0B2074B53F820301B6801248C407A
S3151FFF1390A343C0B2034C54F82040236010BC7047D0
S3151FFF13A0903DFF1F7C3DFF1F4FF0807C1CEB400FC6
S3151FFF13B094BF1CEB410F05E040EA010C5FEA4C0CA2
S3151FFF13C001D28842704718BF814270474100090EFC
S3151FFF13D07F3915D4D1F11F0114D4400007D2C001A4
S3151FFF13E040F00040C84048BF6FF000407047C00143
S3151FFF13F040F00040C8404CBF4FF00040404270478E
S3151FFF14000020704700424FF0004058BFC04370474F
S3151FFF1410002840F10980F446404200F005F850F0DD
S3151FFF142000406047002800BF0AD0B0FA80F188400D
S3151FFF1430D1F19D01C905020672F1004241EB102051
S3151FFF1440704750F8041B61B150F8042BD30744BFF4
S3151FFF1450A9F101039A18002342F8043B091FFAD189
S3151FFF1460EFE7704790EA010F44BF81F0004100F09C
S3151FFF147001B900BF431A4FF000423EBF5340C01A87
S3151FFF1480C91800BFD3095FEAD05C13EB400F34BF07
S3151FFF1490B3EB410F40E07CEBD1530CD342EA012162
S3151FFF14A022D8D1EB402009D3400A28BF5FEA50015B
S3151FFF14B040EBCC507047401A15D04002B0FA80F26D
S3151FFF14C0521C9040400A4FEA3C23B3EB026384BF92
S3151FFF14D000EB730007E040F400001A16DB07C2F1AA
S3151FFF14E00102D04018437047182BFCDC31FA03F278
S3151FFF14F002FA03F3591A38BF42F00102D2EB40201A
S3151FFF15003CBF4000ACF1010C5FEACC5CC20572F137
S3151FFF151000414CEB5020704713EB400F0FD24B008F
S3151FFF152009D0ACEBD153022B03DB4902172BDDDDB1
S3151FFF153070479143401A4300D5D10020704713EBE4
S3151FFF1540410FD0D36FF00000704770474FF0807C7C
S3151FFF15501CEB400F94BF1CEB410F05E040EA010C4B
S3151FFF15605FEA4C0C01D28142704718BF8842704711
S3151FFF1570FF2212EAD05C1DBF12EAD1539445934254
S3151FFF15802BE09C44D30780EA01021A4043EA00205E
S3151FFF159043EA0121A1FB0030410038BF40007CF127
S3151FFF15A07F010BDBFE294ADA5B0842EAC15153EA88
S3151FFF15B0006373F1004C51EB10207047D1F1080CFB
S3151FFF15C0DCF120012FDB5B0810FA01F10B4373F1EE
S3151FFF15D0004120FA0CF05041704794451CBF02EAA8
S3151FFF15E0D153934280EA010202F000421DD0400010
S3151FFF15F019D0490017D05BB9634514D00902B1FA58
S3151FFF160081F39940BCEB030CC00140F00040C1E7DA
S3151FFF16100002B0FA80FC10FA0CF0B3EB0C0CC901F8
S3151FFF162041F00041B6E71000704740000AD049005D
S3151FFF163008D010F1807F94BF11F1807F02E042F046
S3151FFF1640FF407047D0437047002200F04DB870B57A
S3151FFF165004000D0016002A003100200000F05EF87E
S3151FFF1660200070BD90EA010F44BF81F00041FFF7D4
S3151FFF167001BF00BF421A3CBF801A89184FF0004CAA
S3151FFF1680C0F3C752FF2A24D0C1F3C75313B3D21ACD
S3151FFF1690D2F1190327DD4CEA01214CFA03F321EAA4
S3151FFF16A00303D140C20D4CEA0020401834BF20EA85
S3151FFF16B00C004CEA5000D20553EA006373EB0C0C87
S3151FFF16C052EB1020420012F1807F38BF7047C00DCA
S3151FFF16D0C0057047490212BF9A4200EB5120F8E737
S3151FFF16E0D2F11703D9D5704700B500BF1300964631
S3151FFF16F09446103928BFA0E80C50FAD85FEA417C00
S3151FFF170028BF0CC048BF40F8042BC90728BF20F8C5
S3151FFF1710022B48BF00F8012B00BD000062F30F220A
S3151FFF172062F31F42401810F0030308D0C91A1FD3D4
S3151FFF1730DB0748BF00F8012D28BF20F8022D130035
S3151FFF174030B414461546103928BF20E93C00FAD895
S3151FFF1750490728BF20E90C0048BF40F8042D890020
S3151FFF176028BF20F8022D48BF00F8012D30BC704757
S3151FFF1770C91818BF00F8012DCB0728BF00F8012D88
S3151FFF17807047000080B5642302220821002000F065
S3151FFF17908AFE00F0F9FE0022DFF8403800F01CFF3A
S3151FFF17A000F0ECFFDFF83818086001BD80B5002395
S3151FFF17B0012200210420FFF783FD002301220121BF
S3151FFF17C00420FFF77DFD0C21002000F037FD01BD32
S3151FFF17D080B50821002000F031FD0921002000F00F
S3151FFF17E02DFD01BD0000000010B500241E2302229F
S3151FFF17F00821002000F057FEDFF8E81708600020D9
S3151FFF18000400E4B2652C03D200BF00BF641CF8E7D7
S3151FFF18101E2302220921002000F045FEDFF8C41710
S3151FFF1820486010BD38B5DFF8BC07406800F0ACFE56
S3151FFF18300022DFF8A83700F0CFFE00F09FFFDFF88A
S3151FFF1840A8170860DFF8A4070068DFF89C17096868
S3151FFF1850FFF708FEDFF898170860DFF894070068A0
S3151FFF1860DFF8901700F0D2FFDFF88C170860DFF85C
S3151FFF187088070068DFF88417FFF768FE04D8DFF8CC
S3151FFF18807807DFF878170160DFF86C070068DFF865
S3151FFF18907017FFF789FD04D2DFF85C07DFF86417BF
S3151FFF18A00160DFF85407006800F06EFE01F02CF8A8
S3151FFF18B0DFF85427DFF8543700F08EFE00F05EFF87
S3151FFF18C0DFF84C170860DFF81C07006800F05CFEA6
S3151FFF18D00022DFF8083700F07FFE00F04FFFDFF82A
S3151FFF18E034170860DFF8F8060068DFF8281709685D
S3151FFF18F0FFF7B8FDDFF820170860DFF81C07006841
S3151FFF190000F042FEDFF81427DFF8143701F07AF8EC
S3151FFF191000F034FFDFF80C170860DFF80C070068CC
S3151FFF192000F032FE04000D00DFF8F806006800F035
S3151FFF19302BFEDFF8F826DFF8F83600F04DFE220003
S3151FFF19402B0001F083F9DFF8EC26DFF8EC3600F009
S3151FFF195043FE04000D00DFF8B806006800F014FE12
S3151FFF1960DFF8D826DFF8D83600F036FE22002B0028
S3151FFF197001F06CF900F002FFDFF8AC16086031BD0D
S3151FFF198010B5DFF8A4060168DFF8B8060068FFF791
S3151FFF1990EFFD0400DFF8B0060168DFF88806006870
S3151FFF19A0FFF7E6FD2100FFF75DFEFFF70FFDDFF8EF
S3151FFF19B07C17088010BD00B5DFF89006DFF890167C
S3151FFF19C009680180DFF88C06DFF88C16096801802D
S3151FFF19D0DFF87C0600210160DFF87C06002101602D
S3151FFF19E0DFF86806B0F9000001F0A4F9DFF86C26EE
S3151FFF19F0DFF86C3600F0F0FD00F0C0FEDFF864166E
S3151FFF1A000860DFF85006B0F9000001F093F9DFF820
S3151FFF1A104C26DFF84C3600F0DFFD00F0AFFEDFF897
S3151FFF1A2048160860DFF83C060168DFF83C060068C9
S3151FFF1A30FFF718FE5FF0804100F0E8FEDFF82C1677
S3151FFF1A400860DFF82C060078FFF7ECFCDFF81C16A2
S3151FFF1A500968FFF707FDDFF81C160860DFF8140695
S3151FFF1A600068DFF81416FFF771FD04D8DFF80406C8
S3151FFF1A70DFF808160160DFF8FC050068DFF80016BF
S3151FFF1A80FFF792FC04D2DFF8EC05DFF8F4150160CF
S3151FFF1A90DFF8F0050168DFF8DC050068FFF768FD72
S3151FFF1AA0DFF8E4150860DFF8E0050068FFF78EFC36
S3151FFF1AB0DFF8F016088000BD00BF00BF00BF00BFE4
S3151FFF1AC000BF00BF00BF00BF00BF00BF00BF00BFFA
S3151FFF1AD000BF00BF00BF00BF00BF00BF00BF00BFEA
S3151FFF1AE000BF00BF00BF00BF00BF704738B504006F
S3151FFF1AF0012200210420FFF732FCFFF7DDFF012241
S3151FFF1B0001210420FFF72BFCFFF7D6FF0022002140
S3151FFF1B100420FFF724FCFFF7CFFF02220C21002032
S3151FFF1B2000F094FC2080A41C002201210420FFF753
S3151FFF1B3016FC00200500EDB27F2D1AD2FFF7BCFF62
S3151FFF1B40FFF7BAFF012201210420FFF708FCFFF769
S3151FFF1B50B3FFFFF7B1FF02220C21002000F076FC36
S3151FFF1B602080A41C002201210420FFF7F8FB6D1C17
S3151FFF1B70E1E7FFF7A1FFFFF79FFF012201210420E6
S3151FFF1B80FFF7EDFBFFF798FFFFF796FF00220121F7
S3151FFF1B900420FFF7E4FB31BD30B4002100200022F3
S3151FFF1BA01100C9B2682906D2C9B2DFF884250023FE
S3151FFF1BB08B54491CF5E700221100C9B27F2918D2A1
S3151FFF1BC0C9B2DFF8702532F811200A2392FBF3F210
S3151FFF1BD0DFF85C35C9B2DFF85C4534F811400A25DA
S3151FFF1BE094FBF5F4DFF84855645D641CD454491C17
S3151FFF1BF0E3E768221100C9B2372929D3C9B2DFF833
S3151FFF1C0030258A5CC9B2DFF82835CB1813F8013C9B
S3151FFF1C109A421BD2C9B2DFF818258A5C1000C9B2D7
S3151FFF1C20DFF80C258A1812F8012CC9B2DFF8003528
S3151FFF1C30CA54C9B2DFF8F8248A1802F8010CC9B2D0
S3151FFF1C404A1E0A235A43DFF860351A80491ED2E718
S3151FFF1C500A221100C9B2282928D2C9B2DFF8D02417
S3151FFF1C608A5CC9B2DFF8C834CB185B789A421BD29D
S3151FFF1C70C9B2DFF8BC248A5C1000C9B2DFF8B024F2
S3151FFF1C808A1812F8012CC9B2DFF8A434CA54C9B294
S3151FFF1C90DFF89C248A1802F8010CC9B24A1C0A23D2
S3151FFF1CA05A43DFF808351A80491CD3E7DFF8F824B3
S3151FFF1CB01288DFF8F8341B8813FA82F2022392FB8D
S3151FFF1CC0F3F2DFF8EC341A8030BC704700221100A4
S3151FFF1CD0C9B2802914D20200901C1288DFF8D034B3
S3151FFF1CE01B889A4205D3C9B2DFF8C82401238B5438
S3151FFF1CF004E0C9B2DFF8BC2400238B54491CE7E775
S3151FFF1D00704710B53F243F200400E4B2DFF8A40458
S3151FFF1D10205C002801D0641EF7E7DFF89C040470DF
S3151FFF1D203F200400E4B2DFF88C04205C002801D0BA
S3151FFF1D30641CF7E7DFF884040470DFF87C0400787F
S3151FFF1D40DFF878140978081800F0F4FF00225FF017
S3151FFF1D50804300F057FE00F011FDDFF864140860A2
S3151FFF1D60DFF860040078FFF75DFB0100DFF8500422
S3151FFF1D700068FFF777FBDFF850140860DFF83C04B5
S3151FFF1D800078DFF834140978401A6D2808DADFF86F
S3151FFF1D902C040078DFF820140978401A3C2803DA50
S3151FFF1DA0DFF824040021016010BD70B50020060076
S3151FFF1DB0F6B2092E0CD2F6B2DFF8100410EB86002E
S3151FFF1DC04068F6B2DFF8041441F82600761CEFE7E9
S3151FFF1DD0DFF8F803DFF8F01309684162DFF8F00355
S3151FFF1DE0DFF8E41309680160DFF8E003406ADFF8F4
S3151FFF1DF0DC134969FFF736FB00F0C6FBDFF85C22F1
S3151FFF1E00DFF8D03300F0E8FB04000D00DFF8C8034E
S3151FFF1E10006800F0B9FBDFF84422DFF8C03300F09B
S3151FFF1E20DBFB22002B0000F011FF00F0A7FCDFF801
S3151FFF1E30B0130860DFF8A003DFF8A4130968016079
S3151FFF1E40DFF8A003DFF8881309680160DFF898033E
S3151FFF1E500168DFF87C030068FFF78AFB0400DFF8E1
S3151FFF1E608C030168DFF878030068FFF781FB210009
S3151FFF1E70FFF7F8FBFFF7AAFADFF87413088070BDA8
S3151FFF1E8000B5DFF8A8020088DFF818130988401A83
S3151FFF1E90DFF85C1309880818DFF858130880DFF886
S3151FFF1EA08C020088DFF8FC120988401ADFF84013FE
S3151FFF1EB00988401ADFF840130880DFF83803B0F9A6
S3151FFF1EC0000040F6C511884204DBDFF8280340F601
S3151FFF1ED0C4110180DFF81C03B0F90000DFF81C13E3
S3151FFF1EE0884204DADFF80C03DFF810130180DFF8EE
S3151FFF1EF00803B0F9000040F6C511884204DBDFF87E
S3151FFF1F00F80240F6C4110180DFF8EC02B0F90000B9
S3151FFF1F10DFF8E812884204DADFF8DC02DFF8DC12AA
S3151FFF1F20018041480068DFF8D812FFF70FFB06D97B
S3151FFF1F303D480068DFF8CC12FFF736FA07D2DFF805
S3151FFF1F40B80200210180DFF8AC0200210180DFF813
S3151FFF1F50A802B0F9000001280ADBDFF8AC02DFF8A0
S3151FFF1F609812B1F900100160DFF8A002002101608D
S3151FFF1F70DFF88402B0F9000001280BDADFF88802C8
S3151FFF1F8000210160DFF88402DFF86C12B1F900103F
S3151FFF1F9049420160DFF85C02B0F9000001280ADB45
S3151FFF1FA0DFF86C02DFF84C12B1F900100160DFF8A1
S3151FFF1FB0640200210160DFF83C02B0F9000001282E
S3151FFF1FC00BDADFF84C0200210160DFF84802DFF869
S3151FFF1FD02412B1F900104942016000BD00C8094033
S3151FFF1FE0043EFF1F083EFF1FF83DFF1FA83DFF1FB3
S3151FFF1FF0183EFF1F00004844103EFF1F9A99993E47
S3151FFF2000999999BE9A9999BE144C77B6D7A54C4004
S3151FFF2010143EFF1FFC3DFF1F1C3EFF1FCDCCCCCC2C
S3151FFF2020CCCC1A40003EFF1F203EFF1FFCA9F1D25A
S3151FFF20304D62503F857CD0B359F5EF3F94F6065F4F
S3151FFF2040984C553FAC3DFF1FB03DFF1F645EFF1F02
S3151FFF205004900340625EFF1F04800B409A99999973
S3151FFF20609999993F283EFF1F2C3EFF1F243EFF1FB6
S3151FFF2070745EFF1F303EFF1F0100A0400000A040FF
S3151FFF20800000A0C0B43DFF1F343EFF1F10B582B036
S3151FFF209072B62848040000208DF800009DF8000046
S3151FFF20A0802808D200202080A41C9DF80000401C19
S3151FFF20B08DF80000F2E7FFF779FB0E21002000F0F5
S3151FFF20C0BDF8FFF785FB00F04DFE00F0ACFEFEF7F7
S3151FFF20D0CBFA5149002000F055FF4FF47A7000F0FC
S3151FFF20E089FF4FF41651002000F094FF02220E21A4
S3151FFF20F0002000F0ABF900F027FE484A484B00F0DE
S3151FFF21006BFA0022474B00F07DFC00F037FB464978
S3151FFF21100860FEF752FDFFF735FB62B643480078AE
S3151FFF21206328FBD1FEF71CFFF8E70000605EFF1F69
S3151FFF2130F43FFF1F383EFF1F80B5FFF755FBFFF725
S3151FFF214071FBFFF71DFC3A480078401C38490870A1
S3151FFF2150374800780A280ED33548002101703548C5
S3151FFF2160FFF7C4FCFFF718FD3248FFF7AFFDFFF778
S3151FFF2170C8FDFFF71AFE2D480078401C2B49087033
S3151FFF21802A480078642804D3284800210170FFF7E6
S3151FFF219012FCFFF775FE2848006850F0010026491C
S3151FFF21A0086001BD665EFF1F725EFF1F705EFF1F29
S3151FFF21B0685EFF1F383FFF1FC83DFF1FC93DFF1F3B
S3151FFF21C0C43DFF1FA43DFF1FBC3FFF1FC03FFF1F97
S3151FFF21D0E83FFF1F9999E93F5C40FF1F9999C93F48
S3151FFF21E0F03FFF1FEC3FFF1FBC3DFF1FC03DFF1F03
S3151FFF21F06A5EFF1F6E5EFF1F6C5EFF1F3CF6FFFFD3
S3151FFF220001007041000070C1108003401880034019
S3151FFF22102880034020800340A0860100CDCCCCCC74
S3151FFF2220CCCC234000009040F43DFF1F755EFF1F7F
S3151FFF2230765EFF1F383EFF1F0C710340C0B200289A
S3151FFF224003D0012800F08380FFE0DFF8F822126831
S3151FFF225052F00062DFF8EC321A60DFF8EC221268E8
S3151FFF226032F09002DFF8E0321A60DFF8DC2200233B
S3151FFF22701360C9B20A00083A012A0CD9921E012A15
S3151FFF22801BD9921E012A2BD9921E012A3AD9D21E79
S3151FFF2290012A49D959E0DFF8B422126852F4806245
S3151FFF22A0DFF8A8321A60C9B28A0002F1804212F51E
S3151FFF22B09422002342F8203C48E0DFF89022126860
S3151FFF22C04FF400731A43DFF884321A60C9B28A00CB
S3151FFF22D002F1804212F59222002342F80C3C35E0B0
S3151FFF22E0DFF86822126852F48062DFF860321A60E4
S3151FFF22F0C9B28A0002F1804212F59422002342F8E6
S3151FFF2300283C23E0DFF84422126852F40062DFF80C
S3151FFF23103C321A60C9B28A0002F1804212F5962238
S3151FFF2320002342F8383C11E0DFF82022126852F4EE
S3151FFF23300052DFF818321A60C9B28A0002F18042D2
S3151FFF234012F59A220023D36100E07EE07DE0DFF8DD
S3151FFF23500022126852F00062DFF8F4311A60DFF8CC
S3151FFF2360E821126832F41042DFF8DC311A60DFF819
S3151FFF2370D82100231360C9B20A00121F032A0BD9E3
S3151FFF2380121F012A1AD9921E032A29D9121F012A9F
S3151FFF239038D9D21E48D057E0DFF8B021126852F461
S3151FFF23A00052DFF8A8311A60C9B28A0002F18042D3
S3151FFF23B012F59A22002342F8103C45E0DFF88C21E4
S3151FFF23C0126852F48062DFF884311A60C9B28A003C
S3151FFF23D002F1804212F59422002342F8203C33E09B
S3151FFF23E0DFF86821126852F48062DFF860311A60E5
S3151FFF23F0C9B28A0002F1804212F59422002342F8E5
S3151FFF2400183C21E0DFF84421126852F48062DFF89E
S3151FFF24103C311A60C9B28A0002F1804212F594223A
S3151FFF2420002342F8183C0FE0DFF8202112684FF413
S3151FFF243000731A43DFF814311A60C9B2DFF814218B
S3151FFF2440002342F82130FFE7FFE77047F8B5040086
S3151FFF24500D00160000273200D2B22900C9B2200094
S3151FFF2460C0B200F04AF8E4B2DFF8EC0050F82400DF
S3151FFF247000680006F7D5E4B2DFF8DC0050F8240049
S3151FFF248000690700E4B2DFF8D00050F824000068A7
S3151FFF249030F08000E4B2DFF8C01051F82410086056
S3151FFF24A0380080B2F2BD2DE9F84304000D00160077
S3151FFF24B01F005FF00008002081465FFA89F9FFB20F
S3151FFF24C0B94510D23200D2B22900C9B22000C0B21C
S3151FFF24D0FFF7BCFFFEF7A6FF4146FFF7C3F880468F
S3151FFF24E019F10109E9E7FFB23800FEF79BFF01006B
S3151FFF24F0404600F08BF9BDE8F28370B504000D006E
S3151FFF2500160015F01F0050F0400014490872B00066
S3151FFF251010F00C0050F05000104908700F480421AE
S3151FFF252041700E4841F2342141800C4845F27861D3
S3151FFF253081800A49E4B2084850F8240000F010F8D9
S3151FFF254070BD00003C800440188004403880044062
S3151FFF25503080044000900440743DFF1FE43DFF1F81
S3151FFF25600A7882604A78C2604A8882618A88C26115
S3151FFF25708A790262CA794262CA6802650A7A02606A
S3151FFF25804A7A4260704700005FF0FF0C1CEAD05189
S3151FFF259014BF614506E0C110400721F0E04101F17C
S3151FFF25A06051704779B900F0004100020AD0B0FAB6
S3151FFF25B080FC00FA0CF001F16051A1EB0C5101EB0D
S3151FFF25C0D0214005704741020CBF40F4E0016FF078
S3151FFF25D00001002070470000B0B581EA030C0CF024
S3151FFF25E0004C40F2FF7515EA11541DBF15EA13572C
S3151FFF25F0AC42AF4239E0E41923EA455343F4801353
S3151FFF2600C90241F0004141EA505EC7021100A7FB14
S3151FFF2610020200284FF00000EEFB01204FF00001E1
S3151FFF2620E3FB072118BF42F0010240180021494171
S3151FFF2630E3FB0E01A4F580640F0302D25200404153
S3151FFF2640494154F101046CDD470872F1004250F114
S3151FFF2650000051EB0451A1F580115CBF41EA0C014B
S3151FFF2660B0BD4CEA05510020B0BD05EA1357AC4279
S3151FFF267014BFAF4241E050EA410E1CBF52EA430E60
S3151FFF268002E061460020B0BD24423C441BD15FEAF5
S3151FFF2690070EF6D0090302BF01460020AEF1140E46
S3151FFF26A0B1FA81F7AEEB070401FA07FE0C37C7F144
S3151FFF26B0200100FA07F7C8404EEA000E23EA4553EA
S3151FFF26C043F48013A2E733F00043B3FA83F704BF43
S3151FFF26D0B2FA82FE77440B3FE41BB7F1200E2FBFE2
S3151FFF26E002FA0EF3BB40C7F1200E22FA0EFE38BFC9
S3151FFF26F043EA0E03BA40641C82E750EA410E14BF39
S3151FFF270052EA430E6FF000014FF4001717EB430F0A
S3151FFF27108ABF194617EB410FB5E74CEA0551002053
S3151FFF2720B0BDD4F10104B4F120070FDAC4F12007BD
S3151FFF2730520828BF42F0010210FA07F501FA07F700
S3151FFF2740E1BF2A43E0403843E1400FE0352C98DCD8
S3151FFF2750C7F1200452EA400220FA07F218BF42F0DF
S3151FFF2760010231FA07F0A1400A43002172F100422C
S3151FFF277050F1000051EB0C01B0BD00004FEAF17C98
S3151FFF2780BCF1E04C2CBFBCF5001F11E05FEA4C0CFF
S3151FFF279034BFBCF17F5F2EE05FEA9C0C4FEA0C1C37
S3151FFF27A04FEA3C0CC10071F100414CEB5070704772
S3151FFF27B0C90241EA5051C00218BF41F0010141F061
S3151FFF27C000414FEA6C50C0F10900212810D240EAA0
S3151FFF27D0CC7CCCF1200C11FA0CF070F10040CCF13F
S3151FFF27E0200C21FA0CF00CF0004C40EB0C0070474C
S3151FFF27F04FEACC707047490011F5001F04D84FEA06
S3151FFF2800CC10FF30C0057047C817704710B5FF23A0
S3151FFF281013EAD0541DBF13EAD1529C429A4239E0A4
S3151FFF2820A41ADA0780EA0103134042EA012142EAAA
S3151FFF28300020421A3CBF641E01EB4202090AB2FB8B
S3151FFF2840F1FE01FB1E221202B2FBF1F001FB102269
S3151FFF28506EF30F201202B2FBF1FE4EEA00207F3409
S3151FFF286006DDFE2C24DA53EA500050EBC45010BD90
S3151FFF2870D4F1020401FB1E2240F08071192C1DDCCE
S3151FFF288021FA04F0C4F12004A140114371F1004263
S3151FFF2890584110BD9C421ABF03EAD1529A420FE01C
S3151FFF28A080EA010E0EF00043400004D0490016D106
S3151FFF28B043F0FF4010BD490008BFD343180010BDAA
S3151FFF28C09C4205D1D21AF7D001F00041484010BDF6
S3151FFF28D04A0212BF0846484000F0004010BD4AB9E1
S3151FFF28E00902B1FA81F2914044B1A418C00140F028
S3151FFF28F000409EE7C90141F0004152420002B0FA73
S3151FFF290080F4A040141B94E72DE9F84980460F4633
S3151FFF29104146C7F30A5240F2FF74A24211D0002A62
S3151FFF292004BF380351EA10300FD040463946002204
S3151FFF2930002300F061FC3ABF87F0004708260026F8
S3151FFF294007E0380351EA1030EFD040463946BDE85D
S3151FFF2950F4893946264A274B00F04EFC1CD2264DDA
S3151FFF29600020294642463B4600F05EFC04468B4646
S3151FFF297000222B464046394600F068F922465B4641
S3151FFF2980FFF72AFE00F010FD02460B46404639466A
S3151FFF299000F038F8324631E00122174B00F02CFCCD
S3151FFF29A01CD21D460020294642463B4600F03CFCF2
S3151FFF29B004468B4600222B464046394600F046F911
S3151FFF29C022465B46FFF708FE00F0EEFC86F0020488
S3151FFF29D042463B4600F016F822460FE000F05CFD2C
S3151FFF29E0212101604FF0FF306FF00041BDE8F489F0
S3151FFF29F0CE3B7F669EA0E63F0000F03FBDE8F8494D
S3151FFF2A0000F052BDF0B540F2FF7581EA030C0CF0E2
S3151FFF2A10004C15EA11541DBF15EA1357AC42AF42BE
S3151FFF2A20E5E0BC41C1F31301C3F31303801A9941B8
S3151FFF2A3043F4801304D2641E400049418018594154
S3151FFF2A40C90241EA5051B1FBF3F603FB1611A2FB74
S3151FFF2A500675D7EBC020A94102D2761E80185941B1
S3151FFF2A60C90241EA5051B1FBF3FE03FB1E11A2FB44
S3151FFF2A700E75D7EBC020A94103D2AEF1010E801808
S3151FFF2A805941890241EA9051760546EA8E2EB1FBDE
S3151FFF2A90F3F603FB1611A2FB0675D7EB8020A941A0
S3151FFF2AA002D2761E80185941C90241EA50514EEA99
S3151FFF2AB0060EB1FBF3F603FB1611A2FB0675D7EB4A
S3151FFF2AC0C020A94102D2761E80185941C90241EA88
S3151FFF2AD05051B1FBF3F703FB1711A2FB0735D3EBDE
S3151FFF2AE0C020A94167F100070CBF004247F001074D
S3151FFF2AF066F3D5274FEA1E31B80814F5806412DD39
S3151FFF2B00BD0775F1004250EB0E5051EB045111F505
S3151FFF2B10801F5CBF41EA0C01F0BD4CF07F6141F0A5
S3151FFF2B20E0410020F0BDBD076D0840EA0E5041F49D
S3151FFF2B308011D4F10104B4F120060ADAC4F120068C
S3151FFF2B400200E04001FA06F3E1401843B240154385
S3151FFF2B500EE0342C13DCC6F1200445EA40056D0850
S3151FFF2B6020FA06F2154321FA06F0A1400D43002174
S3151FFF2B7075F1004250F1000051EB0C01F0BD002032
S3151FFF2B805FEA0C01F0BDCFB992185B41B3FA83F729
S3151FFF2B9004BFB2FA82F6BF190B3FB7F120062FBF4C
S3151FFF2BA002FA06F3BB40C7F1200622FA06F638BF24
S3151FFF2BB03343BA401CB1E419641E33E77F4231F039
S3151FFF2BC00041B1FA81F404BFB0FA80F6A4190B3C99
S3151FFF2BD0B4F120062FBF00FA06F1A140C4F120066B
S3151FFF2BE020FA06F638BF3143A0403C1B1AE7AC421A
S3151FFF2BF01ABF05EA1357AF4212E050EA41061CBF40
S3151FFF2C0052EA4306BFE750EA4107304661461CBFFB
S3151FFF2C1041EA0551F0BD52EA430C08BFC143F0BD5F
S3151FFF2C2000204FF4001616EB410F98BF16EB430F0C
S3151FFF2C3008BF16EB410F24BFC14305E016EB430F39
S3151FFF2C400CBF61464CEA0551F0BD000070B44FF052
S3151FFF2C50004591EA030C44BF6B4000F0EFBA00BF7B
S3151FFF2C60841A71EB030603D2001BB141121973417C
S3151FFF2C704FF4001C1CEB410F34BF7CEB430443E0B6
S3151FFF2C800C0DA4EB1356352E50DC45EAC323DB0A86
S3151FFF2C9045EAC121C912B6F120050DDD63FA05F616
S3151FFF2CA0EB4086EA0305124218BF45F00105C0181F
S3151FFF2CB051F100010CD213E062FA06F5F2405540BE
S3151FFF2CC0F3415A40B340F3405A408018594107D346
S3151FFF2CD049085FEA30005FEA350528BF45F0010561
S3151FFF2CE001F58011420875F1004250F1000041EBDA
S3151FFF2CF0045170BC4FF4001C1CEB410F38BF7047CB
S3151FFF2D000020090D090570471CEB410F10D252EA2F
S3151FFF2D1043060BD0BCEB410F05D80C0DAB43661E0C
S3151FFF2D20342EB5DD02E0AB438018594170BC7047A6
S3151FFF2D3070BC7047010040F10980F446404200F025
S3151FFF2D4005F851F000416047010000BF09D0B0FAF6
S3151FFF2D5080F18840C91CC1F58461090501EBD021AB
S3151FFF2D60400570476448006850F400606249086078
S3151FFF2D706148006850F480505F4908605F484FF410
S3151FFF2D80806101605E484FF4806101605D484FF4CA
S3151FFF2D90806101605C484FF4806101605B484FF4BE
S3151FFF2DA0806101605A48006850F08070584908607A
S3151FFF2DB05848006850F02800564908605648006872
S3151FFF2DC050F02800544908605448006850F0280006
S3151FFF2DD0524908605248006850F028005049086061
S3151FFF2DE05048006850F028004E4908604E480021A1
S3151FFF2DF001604E4840F6C41101604D480021016035
S3151FFF2E004C48002101604C48002101604B480021BE
S3151FFF2E1001604B48002101604A48006850F00A00D4
S3151FFF2E20484908607047344800684FF400710843EB
S3151FFF2E303149086044484FF4E061016043484FF44D
S3151FFF2E40E061016042484FF4C061016041484FF4A1
S3151FFF2E50C06101602E48006850F000702C49086061
S3151FFF2E603D48006850F080703B4908603B484FF66D
S3151FFF2E70FF7101603A484FF6FF7101603948002123
S3151FFF2E800160394800210160384800210160384838
S3151FFF2E90002101603748006850F00400354908607B
S3151FFF2EA03548006850F00400334908603148006810
S3151FFF2EB050F001002F4908602F48006850F00100AD
S3151FFF2EC02D4908602D48006830F008002B4908601F
S3151FFF2ED02A48006850F00100284908602848006802
S3151FFF2EE030F00800264908602548006850F00100A9
S3151FFF2EF023490860704700003880044004B004402F
S3151FFF2F0008B004400CB0044010B0044010C0044089
S3151FFF2F103C8004400C800340148003401C80034008
S3151FFF2F20248003402C800340048003400880034015
S3151FFF2F304C800340108003401880034020800340CD
S3151FFF2F4028800340008003403090044034900440A3
S3151FFF2F50289004402C900440308004400890034082
S3151FFF2F6008800B404C9003404C800B40049003405D
S3151FFF2F7004800B405490034054800B4080900340C5
S3151FFF2F8080800B4038B504000D001748006850F4C9
S3151FFF2F90000015490860154800688008800013491E
S3151FFF2FA00860E4B2200112494550E4B2104810EB05
S3151FFF2FB00410C06850F00100E4B20D4911EB041173
S3151FFF2FC0C860E4B20A4810EB0410806850F0030093
S3151FFF2FD0E4B2074911EB04118860E4B214F144000F
S3151FFF2FE000F061FB31BD00003C80044000700340D0
S3151FFF2FF00071034000231900814208D2044B1A00B7
S3151FFF3000002A02D000BF521EFAE7491CF4E7704799
S3151FFF3010A0860100F0B4C0B2002808D0022824D031
S3151FFF302014D304283FD02FD305284BD059E0614E28
S3151FFF30304FF440773760604E4FF4407737605F4EEF
S3151FFF3040366856F480665D4F3E604AE05C4E4FF42D
S3151FFF3050407737605B4E4FF440773760574E366881
S3151FFF306056F40066554F3E603BE0574E4FF4407790
S3151FFF30703760564E4FF440773760504E366856F4DA
S3151FFF308080564E4F3E602CE0514E4FF440773760CF
S3151FFF3090504E4FF440773760484E366856F4005609
S3151FFF30A0464F3E601DE04C4E4FF4407737604B4E08
S3151FFF30B04FF4407737604A4E366856F48066484F5E
S3151FFF30C03E600EE0474E4FF440773760464E4FF453
S3151FFF30D040773760424E366856F40066404F3E6073
S3151FFF30E0FFE7C0B2414E56F82060F67816F0F3069A
S3151FFF30F0C0B23E4F57F82070FE70C0B23B4E56F817
S3151FFF310020600027B770C0B2002801D1012600E05A
S3151FFF31100026C0B2012801D1012700E000273E4348
S3151FFF3120F6B2002E02D0324E350001E0314E350089
S3151FFF31300E01B5FBF6F63200C0B22C4E56F82060D4
S3151FFF3140367816F0E006340092B2160A16F01F06FE
S3151FFF31502643C0B2254F57F820703E70C0B2234E8C
S3151FFF316056F8206072706E010F01B6FBF7F692B22A
S3151FFF3170B6EB42163300C0B21C4E56F82060B67A25
S3151FFF318016F0E0063400C0B2184E56F8206013F052
S3151FFF31901F072743B772C0B2144E56F82060F67842
S3151FFF31A056F00C06C0B2114F57F82070FE70F0BCD8
S3151FFF31B07047000018C004401CC004403480044000
S3151FFF31C00CB0044010B004400CC0044008C00440BB
S3151FFF31D040B0044044B0044064D0044060D0044073
S3151FFF31E02880044024D0044020D00440CC3DFF1F3C
S3151FFF31F00095BA0A804A5D054FF4001C1CEB410F70
S3151FFF320094BF1CEB430F09E041EA030C50EA4C0C39
S3151FFF321052EA0C0C03D2994208BF9042704714BF63
S3151FFF32208B4282427047000070B44FF0004591EA0F
S3151FFF3230030F44BF6B40FFF713BD00BF841A71EB2B
S3151FFF3240030604D26E40001BB141121973414FF49E
S3151FFF3250001C1CEB410F34BF7CEB430684E00C0DB7
S3151FFF3260A4EB1356362E7DDC012E43DC45EAC32322
S3151FFF327043EA525312BFD20292025B08240545EA64
S3151FFF3280C12141EA5051D2EBC020994125D407D124
S3151FFF3290B0FA80F610FA06F164D00020203608E057
S3151FFF32A0B1FA81F6B140C6F1200220FA02F21143AC
S3151FFF32B0B0404FEAF474B4EB465434F001064FEABC
S3151FFF32C074040AD8D6F50016760D04F00044F040B4
S3151FFF32D061FA06F25040F1404840C00A40EA4150A9
S3151FFF32E021F0004128BF5FEA500550F1000044EB73
S3151FFF32F0D12137E045EAC323DB0A45EAC121C90AC3
S3151FFF3300B6F120050EDD42EA0242120CC5F1200678
S3151FFF331003FA06F6EB4042EA06056D42984161F154
S3151FFF332000010DE062FA06F5F240554063FA06FC0E
S3151FFF333082EA0C02F3405A406D42904161EB030152
S3151FFF334011F4801F05D1641E620502D06D00404136
S3151FFF3350494121F48011430875F1004350F10000E4
S3151FFF336041EB045170BC70471CEB410F15D223F084
S3151FFF3370004352EA43060BD04FEA4C0CBCEB410FFE
S3151FFF338004D80C0D661E342EB7DDEBE7801A994164
S3151FFF339050EA410608BF0021E4E708BF1CEB430FB5
S3151FFF33A028BF6FF00001DDE740F2FF7C0B0D4DD00C
S3151FFF33B0634566D230B421EA035141F4801103F20B
S3151FFF33C0FD3C5FEA5C0C01D300184941890041EAC5
S3151FFF33D0907180004FF440140023E202D50AB1F525
S3151FFF33E0100107D46D081DD2091B64190018494126
S3151FFF33F0491BF7D56D080AD20919641B00184941E5
S3151FFF3400491BEFD56D08F7D301E0520817D0C01837
S3151FFF341061419B1AAC4100184941801AA941F4D456
S3151FFF342052080AD0C01AA1419B186C410018494186
S3151FFF3430801AA941E9D45208F4D15B1C6C4161087B
S3151FFF34404FEA330001EB0C5130BC704750EA0103C2
S3151FFF3450FBD030B4B1FA81F311B9B0FA80F41B195E
S3151FFF34600B3BB3F120042FBF00FA04F19940C3F1C0
S3151FFF3470200420FA04F438BF21439840D3F10103F7
S3151FFF34809DE76345E1D011F5801FDED850EA410164
S3151FFF3490DBD0D94300F05EB9014800F061B90000E7
S3151FFF34A07C5EFF1F000000002DE9FC4D04460D4604
S3151FFF34B01646554A554B00F055F91CD8544FDFF8A1
S3151FFF34C054813A464346FFF787F80022524BFFF7D0
S3151FFF34D0BDFB82468B4622462B4638464146FFF7A3
S3151FFF34E0B5FB02460B4650465946FFF78BFA044675
S3151FFF34F00D4646F00106204629460022474BFFF799
S3151FFF35007BFE05D301224FF0795300F02BF95DD8CF
S3151FFF351022462B46FFF760F882468B4652465B468E
S3151FFF352020462946FFF758F8074688463C483D4937
S3151FFF353052465B46FFF750F83B4A3C4BFFF786FB6D
S3151FFF354052465B46FFF748F8394A3A4BFFF77EFB71
S3151FFF35503A464346FFF740F802460B4620462946A2
S3151FFF3560FFF774FB04460D463348344952465B4604
S3151FFF3570FFF732F802460B4631483249FFF766FB23
S3151FFF358052465B46FFF728F802460B462E482F4941
S3151FFF3590FFF75CFB52465B46FFF71EF802460B46DC
S3151FFF35A02B482C49FFF752FB02460B4650465946FE
S3151FFF35B0FFF712F80022284BFFF748FB02460B4680
S3151FFF35C020462946FFF71EFA04460D46B00748BF99
S3151FFF35D085F0004516F007020BD0204629460FF24D
S3151FFF35E0800303EBC204D4E90023FFF72FFB044636
S3151FFF35F00D46300748BF85F00045CDE90045DDE99B
S3151FFF36000001BDE8FC8D000057CD9E5E1426D13FFD
S3151FFF3610AA4C58E87AB6FB3F0000F0BF000040BE39
S3151FFF3620845D57134B57B03FB2934C19ED5EE43F82
S3151FFF3630BEDE02B90240F83FDE39028FC7C0743FB4
S3151FFF36408AAB1283000CC83F24D7E508B6D8F03FD4
S3151FFF36500F34580E5895FD3F0000F03F0000000045
S3151FFF3660000000000000000066732D3852C1E03FC6
S3151FFF3670182D4454FB21F93F66732D3852C1F03F75
S3151FFF3680182D4454FB21F93F66732D3852C1004054
S3151FFF3690182D4454FB2109403FD038C6A6F10440DC
S3151FFF36A025490860704710B45C2801DB5B221000B8
S3151FFF36B0202290FBF2F21100002903D0022927D006
S3151FFF36C013D337E00122202390FBF3F404FB1304EB
S3151FFF36D0A2401A4B1A600122202390FBF3F404FB2E
S3151FFF36E01304A240164B1A6024E00122202390FBED
S3151FFF36F0F3F404FB1304A240124B1A60012220238A
S3151FFF370090FBF3F404FB1304A2400F4B1A6011E066
S3151FFF37100122202390FBF3F404FB1304A2400B4B5F
S3151FFF37201A600122202390FBF3F404FB1304A2402B
S3151FFF3730074B1A6010BC704708ED00E080E200E0FF
S3151FFF374000E100E084E200E004E100E088E200E03F
S3151FFF375008E100E01FB5FFF79FFE212101601FBD96
S3151FFF3760704700004FF4001C1CEB410F94BF1CEB6E
S3151FFF3770430F09E041EA030C50EA4C0C52EA0C0CCA
S3151FFF378003D28B4208BF8242704714BF99429042B1
S3151FFF3790704700000000000000000000002F00001F
S3151FFF37A000000700070000147F147F1400242A7FE0
S3151FFF37B02A1200626408132300364955225000005F
S3151FFF37C00503000000001C224100000041221C00CF
S3151FFF37D00014083E08140008083E0808000000A051
S3151FFF37E0600000080808080800006060000000204D
S3151FFF37F010080402003E5149453E0000427F40002B
S3151FFF3800004261514946002141454B3100181412B0
S3151FFF38107F10002745454539003C4A49493000017D
S3151FFF38207109050300364949493600064949291ECC
S3151FFF3830000036360000000056360000000814222E
S3151FFF3840410000141414141400004122140800022E
S3151FFF38500151090600324959513E007C1211127C53
S3151FFF3860007F49494936003E41414122007F414180
S3151FFF3870221C007F49494941007F09090901003E72
S3151FFF38804149497A007F0808087F0000417F4100B0
S3151FFF3890002040413F01007F08142241007F404026
S3151FFF38A04040007F020C027F007F0408107F003E0E
S3151FFF38B04141413E007F09090906003E4151215EF4
S3151FFF38C0007F091929460046494949310001017FF1
S3151FFF38D00101003F4040403F001F2040201F003F87
S3151FFF38E04038403F00631408146300070870080739
S3151FFF38F000615149454300007F41410000552A554C
S3151FFF39002A55000041417F000004020102040040C6
S3151FFF391040404040000001020400002054545478E8
S3151FFF3920007F484444380038444444200038444408
S3151FFF3930487F00385454541800087E0901020018A6
S3151FFF3940A4A4A47C007F080404780000447D4000E3
S3151FFF3950004080847D00007F102844000000417FC7
S3151FFF39604000007C04180478007C080404780038A3
S3151FFF39704444443800FC242424180018242418FC2B
S3151FFF3980007C0804040800485454542000043F4494
S3151FFF39904020003C4040207C001C2040201C003C57
S3151FFF39A04030403C004428102844001CA0A0A07CA7
S3151FFF39B0004464544C4414141414141431490968F4
S3151FFF39C051F478512F4A11602F4900220A702F494F
S3151FFF39D0096851F080512D4A11602D49097851F020
S3151FFF39E080012B4A11702B4998220A702A490978A0
S3151FFF39F0C906FBD428490978C1F38101C9B2022937
S3151FFF3A00F8D126490E220A70254900220A70254938
S3151FFF3A10096808002349096851F47F01214A11608B
S3151FFF3A202149224A0A601F4908601D495E220A7002
S3151FFF3A30194909788906FBD5174909784906FBD520
S3151FFF3A401449097811F03F01124A1170124909787A
S3151FFF3A50C1F38101C9B20329F8D11549096851F488
S3151FFF3A608051134A116013494FF4E0620A601249ED
S3151FFF3A70096851F00101104A116010494FF4A06205
S3151FFF3A800A60704738800440014006403480044076
S3151FFF3A9008C0074000400640064006400440064057
S3151FFF3AA00540064000F00140448004400000170116
S3151FFF3AB00480044018900440408004400CB004402A
S3151FFF3AC080B500F071F800F007F800F049F8FFF72E
S3151FFF3AD075FFFEF7DBFAFEE7F8B527482749884249
S3151FFF3AE00CD000200400B4F5826F07D22248234969
S3151FFF3AF051F8241040F82410641CF4E71E48FFF702
S3151FFF3B00CFFD1F4A1F492048431A1C0023005C1E76
S3151FFF3B10002B04D00B781370491C521CF6E71B4D64
S3151FFF3B201B4B5E1B34002600741E002E03D000267F
S3151FFF3B302E706D1CF7E7174E174FDFF860C0BCEBF3
S3151FFF3B40070E7446A646BEF10104BEF1000F06D04E
S3151FFF3B5097F800E086F800E07F1C761CF2E7F1BDC0
S3151FFF3B600F48006850F480500D4908600D484FF408
S3151FFF3B70E0610160704700000000FF1F0000FF1F8C
S3151FFF3B80743DFF1FE03BFF1F503CFF1FE43DFF1F20
S3151FFF3B907C5EFF1F00000000000000000000000009
S3151FFF3BA0048004401890044080B500F009F80A48C5
S3151FFF3BB000884FF6FE7108400749088001BD0000C7
S3151FFF3BC072B606484CF22051018004484DF6281163
S3151FFF3BD0018062B670470000002005400E20054099
S3151FFF3BE000B0034000B00B4000F00F4040F00F4005
S3151FFF3BF080F00F40C0F00F4000F10F4000900440CF
S3151FFF3C0000A0044000B0044000C0044000D00440A0
S3151FFF3C103E00000000808C440000DC43CDCC8C406E
S3151FFF3C2000002042000020400000E4410000EC415C
S3151FFF3C3000007C42126E000000A0064000B0064046
S3151FFF3C4000C0064000D0064000A00E4000B00E4048
S3151FFF3C5010B5084979441C31074C7C441A34A142DC
S3151FFF3C6006D0081D0A68511888470146A142F8D198
S3151FFF3C7010BD00BF080000001C000000C7D7FFFFD4
S3151FFF3C8098200000E43DFF1F040000007C5EFF1F1D
S3151FFF3C900000000000F009F8002801D0FFF7D8FF49
S3151FFF3CA00020FEF7F3F900F002F80120704700F03D
S3151FFF3CB001B800000746384600F002F8FBE7000090
S3151FFF3CC080B5C046C046024A11001820ABBEFBE7AF
S3151FFF3CD02600020057484954455F433A000000003B
S3151FFF3CE0737065645F6B703A0000000073706564E4
S3151FFF3CF05F6B693A00000000737465725F6B703A01
S3151FFF3D0000000000737465725F6B643A0000000069
S3151FFF3D10C046C046C046C046FFF7BCFF616363652A
S3151FFF3D203A0000004C5F633A00000000525F633A9F
S3151FFF3D3000000000705F643A00000000775F633A7F
S3151FFF3D40000000005273703A000000004C5F50578E
S3151FFF3D504D3A0000525F50574D3A000041434345CD
S3151FFF3D603A000000616E675F6B703A00616E675FB6
S3091FFF3D706B643A0022
S7051FFF3D118E
