S00C00006D61696E2E7372656373
S1130000F8FF002011040000C35F0000C35F00007C
S1130010C35F0000C35F0000C35F0000C35F000054
S1130020C35F0000C35F0000C35F0000C35F000044
S1130030C35F0000C35F0000C35F0000C35F000034
S1130040C35F0000C35F0000C35F0000C35F000024
S1130050C35F0000C35F0000C35F0000C35F000014
S1130060C35F0000C35F0000C35F0000C35F000004
S1130070C35F0000C35F0000C35F0000C35F0000F4
S1130080C35F0000C35F0000C35F0000C35F0000E4
S1130090C35F0000C35F0000C35F0000C35F0000D4
S11300A0C35F0000C35F0000C35F0000C35F0000C4
S11300B0C35F0000C35F0000C35F0000C35F0000B4
S11300C0C35F0000C35F0000C35F0000C35F0000A4
S11300D0C35F0000C35F0000C35F0000C35F000094
S11300E0C35F0000C35F0000C35F0000C35F000084
S11300F0C35F0000BD550000C35F0000C35F000084
S1130100C35F0000C35F0000C35F0000C35F000063
S1130110C35F0000C35F0000C35F0000C35F000053
S1130120C35F0000C35F0000C35F0000C35F000043
S1130130C35F0000C35F0000C35F0000C35F000033
S1130140C35F0000C35F0000C35F0000C35F000023
S1130150C35F0000C35F0000C35F0000C35F000013
S1130160C35F0000C35F0000C35F0000C35F000003
S1130170C35F0000C35F0000C35F0000C35F0000F3
S1130180C35F0000C35F0000C35F0000C35F0000E3
S1130190C35F0000C35F0000C35F0000C35F0000D3
S11301A0BD570000C35F0000C35F0000C35F0000D1
S11301B0C35F0000C35F0000C35F0000C35F0000B3
S11301C0C35F0000C35F0000C35F0000C35F0000A3
S11301D0C35F0000C35F0000C35F0000C35F000093
S11301E0C35F0000C35F0000C35F0000C35F000083
S1130400FFFFFFFFFFFFFFFFFFFFFFFFFEFFFFFFF9
S11304104FF000004FF000014FF000024FF00003D6
S11304204FF000044FF000054FF000064FF00007B6
S11304304FF000084FF000094FF0000A4FF0000B96
S11304404FF0000C62B608F07DFBFEE70100481E89
S11304500029FBD17047DFF8B809006850F48060C8
S1130460DFF8AC1908604FF48070DFF8A819086051
S1130470DFF8A409006830F48000DFF89C190860F4
S1130480DFF89009006850F00300DFF8881908606D
S1130490DFF88009006850F41020DFF8781908604C
S11304A070470021080000B2322815DA0021DFF875
S11304B06C2900B281540021DFF8642900B2815410
S11304C00021DFF8602900B281540321DFF85829A4
S11304D000B28154401CE6E70021DFF85029116086
S11304E00021DFF84C2911700021DFF84829117030
S11304F0704780B5012301220A21012005F0C0FACA
S1130500012301221021002005F0BAFA012301225F
S11305101121002005F0B4FA012300221B21002040
S113052005F0AEFA012300221A21002005F0A8FAF2
S1130530012300221921002005F0A2FA0123002240
S11305401821002005F09CFA40F20310DFF8E818A7
S1130550086040F20310DFF8E418086040F203106A
S1130560DFF8DC18086040F20310DFF8D8180860E0
S113057040F20310DFF8D018086040F20310DFF8EF
S1130580CC18086040F20310DFF8C418086040F289
S11305900310DFF8C01808607FF0FF00DFF8B81818
S11305A0086040F20310DFF8B4180860DFF8B00800
S11305B0DFF86418086001BD70B5002602220A2124
S11305C0012005F073FC002006000A2E21DA6423C2
S11305D002220A21012005F03FFC05F0CBFC002299
S11305E0DFF8803805F0EEFC04000D00DFF8780831
S11305F0006805F0BFFC22002B0005F0B5FD05F0F6
S113060027FEDFF8641808606420FFF71FFF761CDC
S1130610DBE7012005F06EFCDFF84C08006805F00C
S1130620A9FC0022DFF8443805F05AFE05F010FE5C
S1130630DFF83418086070BD80B50A21012005F088
S113064093FA0B21012005F08FFA0E21002005F00A
S11306508BFA01BD002801D54042FFE7704700B284
S1130660012801DB00B202E000B2404200B2704750
S113067038B500240025DFF8F80790F900000128B8
S113068007DBDFF8EC070078401EDFF8E41708709A
S11306902BE0002004009D2C0CDADFF8D80700784A
S11306A0DFF8D417611891F8D711884200D36D1C74
S11306B0641CF0E7562D07DBDFF8C0070088401CF8
S11306C0DFF8B817088003E00020DFF8B0170880CF
S11306D0DFF8A80700880B2807DB0120DFF8A01744
S11306E008700020DFF894170880DFF89807007876
S11306F005F024FFDFF89017096805F02FFF0CD3ED
S1130700DFF888070078404205F00EFF0100DFF8AB
S11307107807006805F022FF03D20120DFF8601794
S1130720087031BDF8B50025002600240020DFF84C
S1130730601708700020DFF85C1708700020DFF8ED
S11307405817087000200500EDB2052D3CDA012091
S11307500600F6B29C2E35DADFF84007EDB29D2193
S113076001FB0500F6B2301810F8010CDFF82C1765
S1130770EDB29D2202FB0511F6B27118497851FAC7
S113078080F0022190FBF1F00400E4B2DFF80C07E2
S1130790EDB29D2101FB0500F6B2305C201A00B2D7
S11307A0FFF75DFFDFF8F816097809B2814207DA2E
S11307B0DFF8E806EDB29D2101FB0500F6B23454E2
S11307C0761CC6E76D1CBFE7DFF8D8060078DFF8B3
S11307D0CC16DFF8D4261278515C88421FD2DFF899
S11307E0C4060078DFF8B416DFF8BC261278511876
S11307F011F8011C884212D2DFF8A8060078DFF84D
S11308009C16DFF8A426127851184978884206D23B
S1130810DFF894060078DFF8941608709BE04D200A
S113082006004D20DFF888160870F6B20B2E3ADB6E
S1130830DFF870060078DFF86416F6B2715C88425F
S11308402FD2DFF860060078DFF85016F6B2711880
S113085011F8011C884224D2DFF848060078DFF83A
S11308603C16F6B2711811F8021C884219D2DFF84E
S113087034060078DFF82416F6B2711811F8031C58
S113088088420ED2DFF81C060078DFF81016F6B2A4
S1130890711811F8041C884203D2DFF8140606709C
S11308A001E0761EC1E74F2006004F20DFF8041652
S11308B00870F6B2962E36DADFF8E8050078DFF82D
S11308C0DC15F6B2715C88422BD2DFF8D8050078CB
S11308D0DFF8C815F6B271184978884221D2DFF8DA
S11308E0C4050078DFF8B415F6B271188978884227
S11308F017D2DFF8B0050078DFF8A015F6B271184A
S1130900C97888420DD2DFF89C050078DFF88C1591
S1130910F6B271180979884203D2DFF89805067097
S113092001E0761CC5E7DFF888050078D0F14E00B9
S1130930DFF8801509784E39884206DADFF8700549
S11309400078DFF86815087005E0DFF868050078BE
S1130950DFF858150870DFF840050078002840F0EB
S11309603B82DFF82C050078312880F23582DFF8ED
S11309703C050078DFF840150870DFF83005007892
S11309800600F6B2032E5ADBDFF82C050078DFF8F8
S11309901C150978884215D0DFF81C050078DFF8AB
S11309A01C150978401A00B2FFF759FE0700F6B289
S11309B0DFF808050078301A00B2FFF750FE3FB2A6
S11309C087423CDBDFF8D8040078DFF8D014DFF886
S11309D0C02412789D2303FB0211F6B2715CDFF888
S11309E0BC24DFF8AC341B789D2707FB0322F6B246
S11309F0B21812F8022C891A88421EDADFF8A00411
S1130A000078DFF89814DFF8882412789D2303FB1C
S1130A100211F6B2715CDFF88424DFF874341B78B9
S1130A209D2707FB0322F6B2B21812F8032C891A89
S1130A30884202DADFF880040670761EA1E7F6B277
S1130A40022E4FD1DFF870040078DFF860140978C3
S1130A50884247D1DFF848040078DFF84014DFF813
S1130A60302412789D2303FB0211F6B2715CDFF887
S1130A702C24DFF81C341B789D2707FB0322F6B2D5
S1130A80B21812F8022C891A884204DA0220DFF81C
S1130A902814087026E0DFF808040078DFF8FC1357
S1130AA0DFF8EC2312789D2303FB0211F6B27118D0
S1130AB011F8011CDFF8E423DFF8D4331B789D27F9
S1130AC007FB0322F6B2B21812F8022C891A8842E4
S1130AD004DA0120DFF8E013087003E00020DFF8F7
S1130AE0D8130870DFF8C4030078DFF8D413087053
S1130AF0DFF8B80300780600F6B29A2E58DADFF869
S1130B00C0030078DFF8A4130978884215D0DFF811
S1130B10B0030078DFF8AC130978401A00B2FFF78D
S1130B209EFD0700F6B2DFF89C030078301A00B28D
S1130B30FFF795FD3FB287423ADBDFF864030078A4
S1130B40DFF85813DFF8482312789D2303FB0211C2
S1130B50F6B2715CDFF84423DFF834331B789D2749
S1130B6007FB0322F6B2B2189278891A88421DDA7A
S1130B70DFF82C030078DFF82413DFF8142312784D
S1130B809D2303FB0211F6B2715CDFF81023DFF83A
S1130B9000331B789D2707FB0322F6B2B218D278E4
S1130BA0891A884202DADFF818030670761CA3E774
S1130BB0F6B29A2E3ED1DFF808030078BB490978D3
S1130BC0884237D1B6480078B449B14A12789D2397
S1130BD003FB0211F6B2715CB04AAD4B1B789D2742
S1130BE007FB0322F6B2B2189278891A884203DA14
S1130BF09A20B34908701DE0A9480078A749A44A7F
S1130C0012789D2303FB0211F6B271184978A34AA6
S1130C109F4B1B789D2707FB0322F6B2B2189278EC
S1130C20891A884203DA9B20A549087002E09C20B7
S1130C30A3490870A04800787849954A127850541E
S1130C409F4800787649924A1278505473489049E4
S1130C500978085C002827D171488D490978085C17
S1130C609C2821DA6E488A490978085C6B49884ACD
S1130C701278515C401A9C2816DB9048007867492A
S1130C80834A12785054654881490978085C64495C
S1130C907F4A1278515C0818022190FBF1F06149F7
S1130CA07B4A127850545CE05D4879490978085CC5
S1130CB09C2827D1594876490978085C002821D016
S1130CC0574873490978085C5449714A1278515C51
S1130CD0401A9C2816DB7B48007851496C4A1278EC
S1130CE050544E486A490978085C4D49684A12785C
S1130CF0515C0818022190FBF1F04A49644A1278C9
S1130D0050542EE0464862490978085C9C2818D162
S1130D1042485F490978085C002812D16748007886
S1130D203E495B4A12785054664800783C49584A18
S1130D30127850545C4800783A49554A1278505415
S1130D400FE0364852490978085C3549504A127810
S1130D50515C0818022190FBF1F032494C4A127898
S1130D6050542E484A490978085C534908702C4865
S1130D7047490978085C524908702A484449097867
S1130D80085C514908704E4800784B490978401A6C
S1130D901F2818DB0120404908704B48007842495D
S1130DA00870454800784549087045480078454929
S1130DB00870374800783749087003201A49354AC3
S1130DC012785054C7E50020334908703048007841
S1130DD0401C2F490870BEE52E480078002814D026
S1130DE0002005002B480078EDB285420DD24E203C
S1130DF00C49EDB268544C200849EDB268545020B7
S1130E000749EDB268546D1CECE7F1BD0000000029
S1130E103880044058A0044054F00F408C42FF1F17
S1130E20C042FF1FF442FF1F2843FF1F6043FF1F00
S1130E30E343FF1FE243FF1F00D0044004D00440FB
S1130E4008D004400CD0044010D0044014D0044016
S1130E5018D004401CD0044014F10F4050A00440AA
S1130E6000FFEFFF00C80940F404FF1F0000244006
S1130E70BA04FF1FB604FF1FE023FF1FBA43FF1F7E
S1130E80D943FF1F7804FF1F1005FF1F7904FF1FBC
S1130E90CE43FF1FD643FF1FD743FF1F3405FF1F59
S1130EA0B404FF1FB504FF1FBB04FF1F7B04FF1F17
S1130EB0D343FF1FD443FF1FD143FF1F7C04FF1FF5
S1130EC0D243FF1F7D04FF1FDC43FF1F2DE9F843BE
S1130ED000275FF0000800240025DFF87C0C06786A
S1130EE0DFF8740C0078401CDFF8701C08703120A7
S1130EF0DFF86C1C0870DFF86C0C0078DFF8681CF5
S1130F000870DFF8580C007807003FB2322F06DA79
S1130F100320DFF8581C3FB278547F1CF5E7DFF854
S1130F203C0C007807003FB2322F80F21286DFF8C3
S1130F30380C00788046DFF8300C0078DFF8301C7D
S1130F403FB278540FFA88F8B8F1020FC0F2FC806F
S1130F50DFF8200C0078DFF8201C9D2217FB02111B
S1130F600FFA88F818F80110DFF80C2C9D2317FBF2
S1130F7003220FFA88F818EB020212F8022C891ADD
S1130F80884277DADFF8F00B9D2117FB01000FFA96
S1130F9088F818F80000DFF8E01B9D2217FB021107
S1130FA00FFA88F818EB01014978401A00B2FFF7EC
S1130FB056FBDFF8C01B097809B288425ADADFF819
S1130FC0B80B9D2117FB01000FFA88F818EB0000FD
S1130FD04078DFF8A41B9D2217FB02110FFA88F852
S1130FE018EB01018978401A00B2FFF738FBDFF8EB
S1130FF0841B097809B288423CDADFF87C0B9D2116
S113100017FB01000FFA88F818EB00008078DFF86E
S1131010681B9D2217FB02110FFA88F818EB0101D7
S1131020C978401ADFF84C1B0978884222DADFF8C5
S1131030400B3FB2381810F8010CB8EB000000B2B6
S1131040FFF70DFB8146DFF8280B3FB2385CDFF871
S1131050201B3FB2791811F8011C401A00B2FFF7A7
S1131060FEFA0FFA89F9814504DADFF8040B3FB27E
S113107007F80080DFF8F80A3FB2385CDFF8E81AB6
S11310800978884239D0DFF8E80A3FB2385CDFF8E3
S1131090E01A3FB2791811F8011C401A00B2FFF7A8
S11310A0DEFA8146DFF8C80A3FB2381810F8010C9E
S11310B0B8EB000000B2FFF7D2FA0FFA89F98145C4
S11310C01ADBDFF8AC0A3FB2385CDFF8A41A3FB28F
S11310D0791811F8011C401A00B2FFF7C0FA05286C
S11310E00BDADFF88C0A3FB2381810F8010C00B2A2
S11310F00FFA88F8404500DB26E0DFF8700A3FB2BB
S1131100381810F8010C002807D0DFF8600A3FB245
S1131110381810F8010C022813D1DFF8540A3FB232
S1131120381810F8010C0FFA88F800B2804508DA74
S1131130DFF83C0A3FB2385CDFF82C1A09788842A1
S113114002D1B8F10108FDE60FFA88F8B8F1010FF1
S11311502DD1DFF81C0A3FB2385CDFF80C1A09788D
S1131160884224D1DFF80C0A0078DFF80C1A9D229B
S113117017FB02110FFA88F818F80110DFF8F829A4
S11311809D2317FB03220FFA88F818EB020212F8CA
S1131190012C891A884205DA0120DFF8D4193FB2FC
S11311A0785404E00020DFF8C8193FB27854DFF81F
S11311B0B80900788046DFF8B0090078DFF8BC1978
S11311C03FB278540FFA88F8B8F19B0F80F200818F
S11311D0DFF8A0090078DFF8A0199D2217FB02119F
S11311E00FFA88F818F80110DFF88C299D2317FBF3
S11311F003220FFA88F818EB02029278891A8842BF
S11312007CDADFF874099D2117FB01000FFA88F8D6
S113121018F80000DFF860199D2217FB02110FFA7D
S113122088F818EB010111F8011C401A00B2FFF70D
S113123016FADFF84019097809B288425EDADFF855
S113124038099D2117FB01000FFA88F818EB0000FC
S113125010F8010CDFF820199D2217FB02110FFA78
S113126088F818EB010111F8021C401A00B2FFF7CC
S1131270F6F9DFF80019097809B288423EDADFF896
S1131280F8089D2117FB01000FFA88F818EB0000FD
S113129010F8020CDFF8E0189D2217FB02110FFA78
S11312A088F818EB010111F8031C401ADFF8C41880
S11312B00978884222DADFF8C4083FB2381810F8F7
S11312C0010CB8EB000000B2FFF7C9F98146DFF862
S11312D0AC083FB2385CDFF8A4183FB2791811F8B3
S11312E0011C401A00B2FFF7BAF90FFA89F98145D7
S11312F004DADFF888083FB207F80080DFF87C08DA
S11313003FB2385CDFF860180978884239D0DFF8DA
S11313106C083FB2385CDFF864183FB2791811F8F2
S1131320011C401A00B2FFF79AF98146DFF84C0815
S11313303FB2381810F8010CB8EB000000B2FFF708
S11313408EF90FFA89F981451ADBDFF830083FB2CC
S1131350385CDFF828183FB2791811F8011C401ADC
S113136000B2FFF77CF905280BDADFF810083FB26A
S1131370381810F8010C0FFA88F800B2804500D133
S113138026E0DFF8E8073FB2381810F8010C01280E
S113139007D0DFF8D8073FB2381810F8010C02283C
S11313A013D1DFF8D8073FB2381810F8010C00B297
S11313B00FFA88F8404508DADFF8C0073FB2385C16
S11313C0DFF8A4170978884202D118F10108F9E678
S11313D00FFA88F8B8F19B0F2CD1DFF8A0073FB2C1
S11313E0385CDFF884170978884223D1DFF8840752
S11313F00078DFF884179D2217FB02110FFA88F892
S113140018F80110DFF870279D2317FB03220FFA49
S113141088F818EB02025278891A884205DA9B2070
S1131420DFF858173FB2785404E09C20DFF84C17DB
S11314303FB27854DFF8240700783FB200B2874205
S1131440C0F29F82DFF828073FB2385C022805DB30
S1131450DFF81C073FB2385C9B2821DBDFF80C0760
S11314603FB2381810F8010C002807D0DFF8FC064A
S11314703FB2381810F8010C022811D1DFF8FC062D
S11314803FB2385C00280BD0DFF8F0063FB2385C7E
S11314909C2805DA0020DFF8D4163FB2785450E0D7
S11314A0DFF8CC063FB2385C002827D0DFF8C0064E
S11314B03FB2385C9C2821DADFF8C0063FB2385CC2
S11314C0022805DBDFF8B4063FB2385C9B2815DB45
S11314D0DFF898063FB2381810F8010C012807D03D
S11314E0DFF888063FB2381810F8010C022805D13D
S11314F00120DFF878163FB2785422E0DFF8700656
S11315003FB2385C022805DBDFF864063FB2385C82
S11315109B2811DBDFF864063FB2385C022805DB48
S1131520DFF858063FB2385C9B2805DB0220DFF861
S11315303C163FB2785404E00320DFF830163FB283
S113154078543FB20B2FC0F28980DFF824063FB2F3
S1131550385C02283EDADFF824063FB2385CDFF854
S11315601C163FB2791811F8011C401A022831DB0D
S1131570DFF808063FB2385CDFF800163FB279188E
S113158011F8021C401A062824DBDFF8F0053FB2EC
S1131590385CDFF8E8153FB2791811F8031C401ADB
S11315A0072817DBDFF8C4053FB2385C002805D0F4
S11315B0DFF8B8053FB2385C022805D10220DFF815
S11315C0AC153FB2785449E00120DFF8A0153FB2D2
S11315D0785443E0DFF8A4053FB2385C9B283DDB38
S11315E0DFF88C053FB2381810F8030CDFF88015CB
S11315F03FB2795C401A072830DBDFF874053FB24C
S1131600381810F8020CDFF868153FB2795C401AFC
S1131610062823DBDFF858053FB2381810F8010C10
S1131620DFF84C153FB2795C401A022816DBDFF86C
S11316303C053FB2385C012805D0DFF830053FB2E5
S1131640385C022805D10220DFF820153FB2785417
S113165004E00020DFF814153FB27854DFF81C05CD
S11316603FB2385CDFF808153FB2795C401ADFF806
S11316700C153FB2791811F8011C401ADFF8F01468
S11316803FB2791811F8011C50FA81F00828C0F211
S11316909780DFF8DC043FB2385CDFF8D4143FB243
S11316A0791811F8011C401A00B2FEF7D8FF8146E0
S11316B0DFF8C8043FB2385CDFF8C0143FB27918D1
S11316C011F8011C401A00B2FEF7C9FF0FFA89F99C
S11316D0814527DADFF898043FB2385CDFF89014CC
S11316E03FB2791811F8011C401A00B2FEF7B7FF97
S11316F0042817DADFF874043FB2385C002805D0F8
S1131700DFF868043FB2385C022805D10220DFF814
S11317105C143FB2785453E00120DFF850143FB218
S113172078544DE0DFF854043FB2385CDFF84C14D1
S11317303FB2791811F8011C401A00B2FEF78FFF6E
S11317408146DFF82C043FB2385CDFF824143FB242
S1131750791811F8011C401A00B2FEF780FF0FFA45
S113176089F9814527DADFF814043FB2385CDFF8E1
S11317700C143FB2791811F8011C401A00B2FEF79C
S11317806EFF042817DADFF8E4033FB2385C01285F
S113179005D0DFF8D8033FB2385C022805D1022017
S11317A0DFF8C8133FB278540AE00020DFF8BC1316
S11317B03FB2785404E00220DFF8B0133FB278540B
S11317C0DFF8A8033FB2381810F8010C002831D113
S11317D0DFF8A8033FB2385CDFF894133FB2795CBA
S11317E0401ADFF8981336B2715C401ADFF88013A0
S11317F036B2715C401803284BDBDFF870033FB24C
S1131800385C012805D0DFF864033FB2385C022855
S113181004D10220DFF854133FB27854DFF84C03AC
S11318203FB2385C032834D10020DFF840133FB2C4
S113183078542EE0CD483FB2381810F8010C012836
S113184027D1CE483FB2385CC9493FB2795C401ACF
S1131850CA4936B2715C401AC54936B2715C401847
S1131860032816DBC1483FB2385C002804D0BF48C7
S11318703FB2385C022803D10220BC493FB27854FD
S1131880BA483FB2385C032803D10120B7493FB2BC
S11318907854B6483FB2385C032800D13E00B348C0
S11318A03FB2385C002829D1B4483FB2385CB34910
S11318B03FB2791811F8011C401AAD493FB27918AA
S11318C011F8011C50FA81F0012804DA0020A8491B
S11318D03FB2785455E0A9483FB2385CA7493FB2BB
S11318E0791811F8011C401AA1493FB2791811F86E
S11318F0011C08189E493FB2785442E09B483FB20D
S1131900385C012828D19A483FB2385C9B493FB2E1
S1131910791811F8011C081895493FB2791811F883
S1131920011C401A9C2804DB9C2094493FB2785443
S113193027E08F483FB2385C90493FB2791811F8DC
S1131940011C08188A493FB2791811F8011C401A81
S11319508A493FB2785414E084483FB2385C022884
S11319600FD183483FB2381810F8010C80493FB2B8
S1131970785482483FB2381810F8010C7F493FB2BE
S113198078547E483FB2385C79493FB2795C081894
S1131990022190FBF1F0744908703FB2152F2DDB42
S11319A06F48007800B23FB2B84227DB3FB2D7F1AC
S11319B032004000052190FBF1F00F306F493FB237
S11319C0795C6B4A3FB2BA5C891A814216DA3FB23B
S11319D0D7F132004000052190FBF1F00F30674948
S11319E03FB2791811F8011C614A3FB2BA1812F8D3
S11319F0012C891A814201DA594807705F483FB2C5
S1131A00385C5B493FB2795C0818022190FBF1F025
S1131A10DFF8F0183FB278543FB20B2FC0F2968033
S1131A203FB2312F80F292804D4800783128C0F2C5
S1131A308D80504800780A38DFF8CC189D2217FBB7
S1131A400211DFF8C0283FB2BA5C511811F89D1C8E
S1131A50DFF8B4289D2317FB0322DFF8A8383FB230
S1131A60FB5C9A1892F89D20891A88426EDA4148E4
S1131A7000780A38DFF890189D2217FB0211DFF86E
S1131A8084283FB2BA5C511811F89E1CDFF87828FC
S1131A909D2317FB0322DFF86C383FB2FB5C9A18D6
S1131AA092F89C20891A884250DA324800780A3821
S1131AB0DFF854189D2217FB0211DFF848283FB2C3
S1131AC0BA5C511811F89C1CDFF83C289D2317FBC5
S1131AD00322DFF830383FB2FB5C9A1892F89E205C
S1131AE0891A884232DA3800401E1D4908701C48A1
S1131AF0007804001A480078C01F24B2A04225DAF6
S1131B001B4824B2205C02280CDA25001448007813
S1131B1000B22DB2A84217DB002015492DB268543B
S1131B206D1CF3E7154824B2205C9B280CDB2500D0
S1131B300B48007800B22DB2A84205DB9C200F4967
S1131B402DB268546D1CF3E7641ED3E77F1CFFF7C6
S1131B50EAB9BDE8F1830000D643FF1FCF43FF1F5E
S1131B60B704FF1FDC43FF1FD043FF1F2843FF1FA1
S1131B708C42FF1FB404FF1F3405FF1FC042FF1F28
S1131B80F0B400200021DFF8842712780023002419
S1131B90DFF87C572D78DFF87C673570DFF87057F5
S1131BA02D78DFF874673570DFF860572D786D1C79
S1131BB0280000B2DFF858572D78AD1EA84224DA69
S1131BC0DFF8585700B2451915F8015CDFF84C6787
S1131BD000B286197678B54215D1DFF8405700B2C5
S1131BE0451915F8015CDFF8346700B2865DB5422B
S1131BF009D0DFF8285700B2451915F8015CDFF861
S1131C001C6700B28555401CD3E7DFF800572D78D8
S1131C106D1C280000B2DFF8F8562D786D1EA8421E
S1131C2080F29C8000252B0000252C00DFF8EC5668
S1131C3000B2451915F8015C012D08D0DFF8DC5617
S1131C4000B2451915F8015C032D40F08580DFF8DA
S1131C50CC5600B2455D002D05D0DFF8C05600B269
S1131C60455D022D78D105006D1E2B0000B2DFF812
S1131C70A0562D786D1EA84228DADFF8A05600B2CF
S1131C80455D012D05D0DFF8945600B2455D032D66
S1131C901AD1DFF8885600B245196D78012D06D0A7
S1131CA0DFF8785600B245196D78032D0CD1E4B2F3
S1131CB0DFF85C562D78AD1EAC4202DB05002C002B
S1131CC001E0451C2C0001E0401CCFE7E4B2002CED
S1131CD027D0DBB25D1C29002500EDB209B22DB27C
S1131CE0A94239DADFF83856DBB25D5D09B2DBB2FE
S1131CF0CE1ADFF82C76E4B2E75DDFF824C6DBB257
S1131D0013F80CC0B7EB0C077E43E4B2DBB2E71A5E
S1131D1096FBF7F67519DFF8086609B28D55491C6C
S1131D20DAE7E4B2002C17D1DFF8E4552D78032666
S1131D3095FBF6F5DBB29D420EDADBB2312B0BDA02
S1131D40DFF8DC55DFF8C8653678755D022D03DBF6
S1131D50DFF8C0552B7001E0401C5BE7DFF8AC55A1
S1131D602D78280000B2DFF8A8552D786D1EA84202
S1131D7080F29C8000252B0000252C00DFF89C5568
S1131D8000B2451915F8015C002D08D0DFF88C5518
S1131D9000B2451915F8015C032D40F08580DFF889
S1131DA07C5500B2455D012D05D0DFF8705500B2B9
S1131DB0455D022D78D105006D1E2B0000B2DFF8C1
S1131DC050552D786D1EA84228DADFF8505500B220
S1131DD0455D002D05D0DFF8445500B2455D032D67
S1131DE01AD1DFF8385500B245196D78002D06D0A8
S1131DF0DFF8285500B245196D78032D0CD1E4B2F3
S1131E00DFF80C552D78AD1EAC4202DB05002C002A
S1131E1001E0451C2C0001E0401CCFE7E4B2002C9B
S1131E2027D0DBB25D1C29002500EDB209B22DB22A
S1131E30A94239DADFF8B05CDBB25D5D09B2DBB22E
S1131E40CE1ADFF8A47CE4B2E75DDFF89CCCDBB209
S1131E5013F80CC0B7EB0C077E43E4B2DBB2E71A0D
S1131E6096FBF7F67519DFF8806C09B28D55491C9D
S1131E70DAE7E4B2002C17D1DFF894542D78032666
S1131E8095FBF6F5DBB29D420EDADBB2312B0BDAB1
S1131E90DFF8545CDFF878643678755D9B2D03DADF
S1131EA0DFF874542B7001E0401C5BE7DFF86454E6
S1131EB02D78DFF864643678B54244D2DFF858549C
S1131EC02D78DFF84C643570DFF848542D782800FD
S1131ED0DFF844542D782DB200B28542C0F28280DE
S1131EE0DFF8045C00B2455DDFF8FC6B00B28619D4
S1131EF016F8016CAD1BDFF8286400B2861916F8D9
S1131F00016C55FA86F5012D05DA0025DFF8106419
S1131F1000B2855515E0DFF8D05B00B2455DDFF80F
S1131F20C86B00B2861916F8016CAD1BDFF8F063BC
S1131F3000B2861916F8016C7519DFF8E46300B273
S1131F408555401CC4E7DFF8D0532D78DFF8C4630F
S1131F503678B54242D2DFF8BC532D78DFF8B0634F
S1131F603570DFF8B4532D782800DFF8A8532D78A6
S1131F702DB200B2854235DBDFF8A45300B2455DD3
S1131F80DFF8646B00B2861916F8016C7519DFF876
S1131F90906300B2861916F8016CAD1B9C2D05DB0D
S1131FA09C25DFF8446B00B2855515E0DFF87053CB
S1131FB000B2455DDFF8306B00B2861916F8016C8B
S1131FC07519DFF85C6300B2861916F8016CAD1B55
S1131FD0DFF8146B00B28555401CC6E7CE4D2D7852
S1131FE0CB4E3570C94D2D786D1C2800C84D2D7809
S1131FF02DB200B2854231DBC94D00B2451915F846
S1132000015C022D0EDAC64D00B2455D022D09DBDE
S1132010C34D00B245196D78022D03DA0025C04E78
S113202000B28555DFF8C05A00B2451915F8015CB5
S11320309B2D11DBDFF8B05A00B2455D9B2D0BDA06
S1132040DFF8A45A00B245196D789B2D04DB9C255A
S1132050DFF8946A00B28555401CC7E7AB4D2D7874
S11320602800AB4D2D782DB200B2854214DBAB4D68
S113207000B2455D032D0DD0DFF86C5A00B2455D0A
S1132080A74E00B2865D7519022695FBF6F59D4EA6
S113209000B28555401CE4E79C4D2D7828009C4DEA
S11320A02D782DB200B285426DDB9D4D00B2455DA9
S11320B0022D30DADFF8305A00B2455D992D2ADA64
S11320C0DFF8245A00B2455DDFF81C6AD2B2965D8F
S11320D0934FD2B2D75DF61B022796FBF7F6AD1BE2
S11320E0002D04D50025874E00B2855549E0DFF860
S11320F0F85900B2455DDFF8F069D2B2965D884FB9
S1132100D2B2D75DF61B022796FBF7F6AD1B7D4EC8
S113211000B2855535E0DFF8D05900B2455D9B2DFE
S11321202DDB7F4D00B2455D032D28DB7C4D00B2D5
S1132130455DDFF8B469D2B2965D794FD2B2D75D0E
S1132140F61B022796FBF7F675199D2D04DB9C25DB
S11321506C4E00B2855514E0714D00B2455DDFF858
S11321608869D2B2965D6E4FD2B2D75DF61B022754
S113217096FBF7F67519634E00B2855501E005002C
S11321802A00401C8BE7614D2D786D1C280000B29D
S11321905F4D2D78AD1EA84280F2B280594D00B239
S11321A0451915F8015C574E00B2865DB54208D258
S11321B0544D00B245196D78524E00B2865DB54259
S11321C012D3504D00B2455D4E4E00B2861916F83A
S11321D0016CB54219D24B4D00B2455D494E00B277
S11321E086197678B54210D2464D00B2451915F8D5
S11321F0015C444E00B28619767856FA85F50226BB
S113220095FBF6F53F4E00B28555454D00B2451994
S113221015F8015C424E00B2865DB54208D2404DCD
S113222000B245196D783E4E00B2865DB54212D3B8
S11322303B4D00B2455D3A4E00B2861916F8016C6A
S1132240B54219D2364D00B2455D354E00B28619FD
S11322507678B54210D2324D00B2451915F8015CBA
S11322602F4E00B28619767856FA85F5022695FB2C
S1132270F6F52B4E00B28555DFF86C5800B24519BF
S113228015F8015CDFF8606800B2865DB5420AD2D9
S1132290DFF8545800B245196D78DFF84C6800B285
S11322A0865DB54216D3DFF8405800B2455DDFF8CD
S11322B0386800B2861916F8016CB5421ED2DFF8F0
S11322C0285800B2455DDFF8206800B28619767898
S11322D0B54213D2DFF8105800B2451915F8015C65
S11322E0DFF8046800B28619767856FA85F5022676
S11322F095FBF6F5DFF8F06700B28555401C46E71C
S1132300F0BC7047F442FF1FE023FF1FD643FF1FBA
S1132310B704FF1FB804FF1FB904FF1F2843FF1FA2
S11323208C42FF1FF8B5002500260020DFF8BC17FB
S11323300870DFF8BC07807A02280EDBDFF8B007EC
S1132340C07A022809DBDFF8A007807A9B2804DA28
S1132350DFF89407C07A9B2851DBDFF898070078F0
S11323600A30040024B2DFF890070078401F84424A
S113237023DADFF8880724B2205CDFF8801724B260
S113238061188978401A00B2FEF769F9152812DB42
S1132390DFF8680724B2205CDFF8601724B2611804
S11323A0C978401A00B2FEF75AF9152803DBDFF8A2
S11323B03C07047001E0641CD4E7DFF830070078C0
S11323C000281CD0DFF82C070078040024B2DFF8C2
S11323D01C070078801C844211DADFF8140724B249
S11323E0205CDFF8041724B2615C0818022190FB1A
S11323F0F1F0DFF8081724B26054641CE6E7DFF854
S1132400F40600780A30040024B2DFF8EC06007801
S1132410401E844261DADFF8E40624B2205CDFF86F
S1132420D01624B2615C401A00B2FEF718F90228F3
S11324301FDADFF8C80624B220184078DFF8B01697
S113244024B261184978401A00B2FEF708F902284C
S11324500FDADFF8A80624B220188078DFF8901687
S113246024B261188978401A00B2FEF7F8F80228FD
S11324702DDBDFF8880624B2205CDFF86C1624B26A
S1132480615C401A00B2FEF7EAF8022823DADFF8AA
S11324906C0624B220184078DFF84C1624B2611878
S11324A04978401A00B2FEF7DAF8022813DADFF8A6
S11324B04C0624B220188078DFF82C1624B2611858
S11324C08978401A00B2FEF7CAF8022803DA601CC1
S11324D0DFF824160870641C96E7DFF81C06007801
S11324E0302818DADFF810060078401C040024B203
S11324F0322C10DA4E20DFF8041624B26054502037
S1132500DFF8E41524B260544C20DFF8E41524B25B
S11325106054641CEBE70020DFF8E4190880012014
S1132520DFF8E0190870DFF8D0050078DFF8D81973
S11325300880DFF8D0090078002800F08080DFF8F8
S1132540C809B0F900000400DFF8C009007824B21B
S113255000B284425DDBDFF8A405DFF8AC1909881A
S1132560085C24B2DFF8A0190988611ADFF88C2509
S1132570DFF898391B789A5CDFF88035DFF88879C2
S11325803F88FB5CD21A5143DFF880291278DFF8C8
S113259078391B88D21A91FBF2F108180600DFF88B
S11325A0700924B2205C052190FBF1F0DFF83815A6
S11325B024B2615CB6B2891B814205DADFF82805D2
S11325C024B2205C9B281BDBDFF8440924B2205C86
S11325D0052190FBF1F0B6B2DFF8141524B2615C6A
S11325E0711A814213DADFF8080524B2205C02284C
S11325F00DDB24B2DFF8000500780A38844206DADD
S1132600DFF8FC080088401CDFF8F4180880641E1A
S11326109AE7DFF8EC08008800280BD0DFF8E80818
S11326200088401EDFF8E01808800020DFF8D0188A
S113263008807EE70020DFF8CC18087079E70020D6
S1132640DFF8D01808700020DFF8CC1808700020DC
S1132650DFF8C8180870DFF89C040078040024B27E
S1132660DFF8A4080088844230DADFF8900424B24A
S113267020184078DFF8841424B2615C401A0228E0
S113268007DBDFF890080078401CDFF88818087032
S11326901AE0DFF8680424B2205CDFF8601424B286
S11326A061184978401A022807DBDFF86C080078C3
S11326B0401CDFF86418087006E0DFF86008007852
S11326C0401CDFF858180870641CC8E7DFF83808A5
S11326D000882A283DDBDFF840080078052809DA5D
S11326E0DFF830080078052804DA0120DFF8301814
S11326F0087078E0DFF820080078DFF81818097807
S1132700401A00B2FDF7ABFF08280EDADFF808081C
S11327100078022809DBDFF8FC070078022804DBD4
S11327200220DFF8FC1708705DE0DFF8EC070078A2
S1132730022804DBDFF8DC070078022804DA06202C
S1132740DFF8DC1708704EE00320DFF8D4170870B8
S113275049E0DFF8B407008823281DDBDFF8A80769
S11327600088292818DADFF8B0070078022804DB8B
S1132770DFF8A0070078022809DADFF88C07008860
S1132780272804DB0620DFF8981708702BE00320C5
S1132790DFF88C17087026E0DFF86C0700881D2826
S11327A013DBDFF86407008826280EDADFF87407E5
S11327B00078002804D00120DFF86417087012E0C4
S11327C00420DFF85C1708700DE0DFF85807007884
S11327D0002804D00120DFF84817087003E0052022
S11327E0DFF83C170870DFF838070078DFF838178F
S11327F00870DFF82C070078022857D10020DFF892
S1132800141708700020DFF8101708700020DFF894
S11328100C170870DFF8DC0200780400DFF8E80623
S11328200088401E24B2A04230DBDFF8D00224B27C
S1132830205CDFF8C81224B261184978401A0128D4
S113284007DBDFF8D4060078401CDFF8CC160870EC
S11328501AE0DFF8A80224B2205CDFF8A01224B248
S113286061184978401A002807D5DFF8A8060078CF
S1132870401CDFF8A016087006E0DFF8A006007818
S1132880401CDFF898160870641CC7E7DFF8880658
S11328900078DFF880160978401A00B2FDF7DFFEF1
S11328A0262803DB0320DFF878160870DFF87006AB
S11328B0007802284FD1DFF83C0200780400DFF8EA
S11328C04806008824B2A042C0F27F80DFF82C02C0
S11328D024B2205C4F281EDBDFF8200224B2205CE7
S11328E0DFF824160988401A29304E280DDBDFF85A
S11328F00C0224B2205CDFF810160988401AD7387D
S1132900DFF8F81124B2605423E04E20DFF8EC1114
S113291024B260541DE0DFF8E40124B2205CDFF847
S1132920E8150988081829384F280DDADFF8CC0192
S113293024B2205CDFF8D015098829390818DFF89B
S1132940BC1124B2605404E04E20DFF8B01124B26C
S11329506054641CB3E7DFF8C8050078012834D05C
S1132960644800780400DFF8A005008824B2A0427F
S11329702BDB624824B2205C4F2812DB5F4824B270
S1132980205C801E4E2807DB5C4824B2205C801E3D
S11329905A4924B2605416E04E20584924B2605477
S11329A011E0564824B2205C801C4F2807DA5348B3
S11329B024B2205C801C514924B2605403E04E20B0
S11329C04E4924B26054641CCDE700200500DFF8B2
S11329D0600B0078002841D1DFF82C0500882828F6
S11329E03CDB1C20040024B22D2C10DA3E4824B217
S11329F0205C3F4924B2615C401ADFF8141524B20C
S1132A00615C491D884200DB6D1C641CEBE7EDB280
S1132A10062D23DB3648007F3549097E401A0128FC
S1132A201CDB3348007F3249097E401A092815DA35
S1132A302D48007E2C49097F401A01280EDB2A48C4
S1132A40007E2949097F401A092807DA0120DFF8A6
S1132A50D41408700120DFF8D81A0870DFF8C40411
S1132A60007800281CD000220A21012003F056F827
S1132A70DFF8C00A0088401CDFF8B81A0880DFF8C5
S1132A80B40A0088DFF8B01A098888420DD3002000
S1132A90DFF8A01A08800020DFF88814087004E02A
S1132AA001220A21012003F039F8DFF8840A0078B2
S1132AB0002817D0DFF8840A0088401CDFF87C1A4D
S1132AC00880DFF8780A0088DFF86C1A0988B0EB10
S1132AD0810F07DB0020DFF8641A08800020DFF88C
S1132AE0501A0870F1BD0000C042FF1FD543FF1FFC
S1132AF08C42FF1FD643FF1FB704FF1FF442FF1F82
S1132B002DE9F843002600275FF000085FF0000974
S1132B10DFF82C0A0078DFF82C1A0978401A2428E8
S1132B20C0F2C981DFF81C0A0078401D0400DFF8F8
S1132B30140A00781E30844280F2BD81DFF8000A56
S1132B4000782828C0F29E81DFF8FC099D2101FB52
S1132B500400DFF8F819615C081810F89D0CDFF820
S1132B60E8199D2202FB0411DFF8E029A25C511848
S1132B7091F89D10401A00B2FDF771FDDFF8D019ED
S1132B80097809B2884280F27D81DFF8BC099D2171
S1132B9001FB0400DFF8B419615C081810F89E0CFE
S1132BA0DFF8A4199D2202FB0411DFF8A029A25C1E
S1132BB0511891F89C10401A00B2FDF750FDDFF84F
S1132BC09019097809B2884280F25C81DFF87809AB
S1132BD09D2101FB0400DFF87419615C081810F8EA
S1132BE09C0CDFF864199D2202FB0411DFF85C29B8
S1132BF0A25C511891F89E10401A00B2FDF72FFD07
S1132C00DFF84C19097809B2884280F23B81DFF879
S1132C1044090078DFF830199D2202FB0411DFF823
S1132C202C29A25C511811F89D1C884280F02A813D
S1132C30DFF820090078DFF810199D2202FB041147
S1132C40DFF80829A25C511811F89E1C884280F014
S1132C501981DFF800090078DFF8EC189D2202FBE7
S1132C600411DFF8E828A25C511811F89C1C884272
S1132C7080F00881DFF8E008205C001D0500DFF823
S1132C80CC08205CC01E854278DADFF8C4080078DE
S1132C900A38DFF8B4189D2202FB0411691891F870
S1132CA03A11DFF8A4289D2303FB0422AA1812F882
S1132CB09D2C891A88425FDADFF8940800780A3874
S1132CC0DFF884189D2202FB0411691891F83B1166
S1132CD0DFF874289D2303FB0422AA1812F89C2C05
S1132CE0891A884248DADFF8680800780A38DFF879
S1132CF058189D2202FB0411691891F83C11DFF861
S1132D0048289D2303FB0422AA1812F89B2C891A35
S1132D10884231DADFF8380800780A38DFF82818F2
S1132D209D2202FB0411691891F83D11DFF818285F
S1132D309D2303FB0422AA1812F89A2C891A8842AC
S1132D401ADADFF80C0800780A38DFF8FC179D223D
S1132D5002FB0411691891F83E11DFF8EC279D235A
S1132D6003FB0422AA1812F8992C891A884203DA60
S1132D7020000600012007006D1C80E7DFF8BC0B73
S1132D80205C001F0500DFF8C407205CC01CA842BB
S1132D9078DADFF8BC0700780A38DFF8AC179D2230
S1132DA002FB0411691891F83A11DFF89C279D235E
S1132DB003FB0422AA1812F89D2C891A88425FDAB0
S1132DC0DFF88C0700780A38DFF87C179D2202FBB5
S1132DD00411691891F83911DFF86C279D2303FB5E
S1132DE00422AA1812F89E2C891A884248DADFF8BD
S1132DF0600700780A38DFF850179D2202FB04119F
S1132E00691891F83811DFF840279D2303FB042249
S1132E10AA1812F89F2C891A884231DADFF8300791
S1132E2000780A38DFF820179D2202FB0411691884
S1132E3091F83711DFF810279D2303FB0422AA1809
S1132E4012F8A02C891A88421ADADFF804070078ED
S1132E500A38DFF8F4169D2202FB0411691891F870
S1132E603611DFF8E4269D2303FB0422AA1812F886
S1132E70A12C891A884203DA200080460120814669
S1132E806D1E80E7FFB2012F13D15FFA89F9B9F102
S1132E90010F0ED15FFA88F8F6B2B8EB060000B263
S1132EA0FDF7DDFB052804DA0120DFF8941A087029
S1132EB001E0641C3BE6DFF8880A0078002806D0AD
S1132EC0DFF8800A0078401CDFF8781A0870DFF811
S1132ED0740A0078192810DB0120DFF86C1A0870D6
S1132EE00020DFF8601A08700020DFF8541A087018
S1132EF000220A21012002F011FEBDE8F183000046
S1132F00A443FF1FBE04FF1FA243FF1FCF43FF1FA5
S1132F108004FF1FDD43FF1FDE43FF1FDF43FF1F4E
S1132F20E043FF1FE243FF1FE143FF1F70B500248E
S1132F3000250020DFF8141A08800020DFF8101A9A
S1132F4008800020DFF80C1A08800020DFF8081A37
S1132F500880DFF8080A0088DFF8041A08800020D7
S1132F60DFF8001A08600020DFF8FC190880002050
S1132F70DFF8F8190880DFF8F80900881028C0F293
S1132F806882DFF8EC09008829284EDBDFF8B405F5
S1132F900078001D0400DFF8AC050078213024B26D
S1132FA0A0420CDBDFF8A4090088DFF8A01524B2E6
S1132FB0615C4018DFF894190880641CEBE7DFF8C3
S1132FC08C0900881E2190FBF1F0DFF8801908803D
S1132FD02920040024B2252C0CDBDFF874090088B6
S1132FE0DFF8681524B2615C4018DFF864190880C2
S1132FF0641EEFE7DFF858090088052190FBF1F023
S1133000DFF84C190880DFF8440900881421DFF840
S11330104029128850235A4301FB0020642190FB6D
S1133020F1F0DFF8401908605EE1DFF84409008838
S1133030252855DBDFF80C050078001D0400DFF8B7
S1133040040500781E3024B2A0420CDBDFF8FC0833
S11330500088DFF8F81424B2615C4018DFF8EC183B
S11330600880641CEBE7DFF8E40800881B2190FB70
S1133070F1F0DFF8D8180880DFF8F408B0F90000A0
S1133080040024B2DFF8E8080088C01E84420CDB88
S1133090DFF8BC080088DFF8B41424B2615C40187F
S11330A0DFF8AC180880641EEBE7DFF8A40800889A
S11330B0042190FBF1F0DFF898180880DFF88C0801
S11330C000881221DFF88828128852235A4301FB12
S11330D00020642190FBF1F0DFF88818086003E118
S11330E0DFF88C080088212854DBDFF858040078C6
S11330F0001D0400DFF84C040078183024B2A0420C
S11331000CDBDFF848080088DFF8401424B2615C67
S11331104018DFF838180880641CEBE7DFF82C0847
S11331200088152190FBF1F0DFF820180880DFF803
S11331304008B0F90000040024B2DFF83408008825
S1133140801E84420CDBDFF808080088DFF8FC13DB
S113315024B2615C4018DFF8F8170880641EEBE7BE
S1133160DFF8EC070088032190FBF1F0DFF8E017AB
S11331700880DFF8D80700880001DFF8D417098831
S1133180542202FB0100642190FBF1F0DFF8D41714
S11331900860A9E0DFF8D80700881B2853DBDFF8B4
S11331A0A4030078001D0400DFF8980300780F30B2
S11331B024B2A0420BDBDFF894070088E34924B271
S11331C0615C4018DFF884170880641CECE7DFF8C2
S11331D07C0700880C2190FBF1F0DFF87017088061
S11331E0DFF88C07B0F90000040024B2DFF8800790
S11331F00088801E84420BDBDFF854070088D34923
S113320024B2615C4018DFF848170880641EECE7BC
S1133210DFF83C070088032190FBF1F0DFF830175A
S11332200880DFF8280700880E21DFF82427128899
S113323056235A4301FB0020642190FBF1F0DFF890
S11332402417086050E0BF480078001D0400BD4802
S113325000780A3024B2A0420BDBDFF8F0060088C5
S1133260BA4924B2615C4018DFF8E0160880641C97
S1133270EDE7DFF8D8060088072190FBF1F0DFF8CE
S1133280CC160880DFF8E806B0F90000040024B288
S1133290DFF8DC060088801E84420BDBDFF8B00612
S11332A00088AA4924B2615C4018DFF8A41608809B
S11332B0641EECE7DFF898060088032190FBF1F028
S11332C0DFF88C160880DFF8840600880C21DFF80C
S11332D08026128858235A4301FB0020642190FB66
S11332E0F1F0DFF880160860DFF878060068D0F1A6
S11332F04E00DFF860160880DFF85806B0F90000C9
S1133300FDF7A8F9DFF86C16B1F9001088420CDA61
S1133310DFF864060088DFF864160880DFF86006CA
S11333200088DFF8601608800BE0DFF85C06008890
S1133330DFF848160880DFF854060088DFF84416E2
S11333400880DFF84C060078DFF84816097808434F
S1133350C0B200280DD0DFF8300600881E30DFF838
S11333601C160880DFF8240600881430DFF81416D1
S11333700880DFF82406007802280CD1DFF8F8056D
S113338000881430DFF8F4150880DFF8F4050088AD
S1133390DFF8F0150880DFF804060078DFF800167F
S11333A009780843C0B2002808D04020DFF8CC15C3
S11333B008804FF49670DFF8CC150880DFF890058C
S11333C0B0F900004E3800B2FDF749F9082190FB2E
S11333D0F1F0DFF8A815B1F900100818DFF890151E
S11333E00988D1F13201022291FBF2F10818DFF8C9
S11333F078150880DFF88C05B0F90060DFF8640503
S113340000684E3800B2FDF72AF9142190FBF1F060
S11334108019DFF858150880DFF84C050088DFF8BC
S11334203415B1F90010DFF844251288DFF824358B
S1133430B3F90030DFF86C65B6F900609B1B5A43A2
S113344001FB00200A2190FBF1F000B2404205008C
S113345004E0DFF80C05B0F900000500DFF83C05D6
S11334600078002812D0DFF8080500881F280DDA3C
S1133470DFF83405B0F90000404205002DB215F51F
S1133480C86F19DADFF82405050015E0DFF8100528
S11334900078002810D0DFF8D80400881F280BDA41
S11334A0DFF80405B0F9000005002DB2B5F5C86FCA
S11334B002DD4FF4C8600500DFF8E0040078DFF8AF
S11334C0E01409780843C0B2002803D10020DFF8D3
S11334D0E0140870DFF8DC04B0F900002DB2A84253
S11334E004DADFF8D004B0F9000005002DB2DFF8EB
S11334F0C404B0F90000C54205DADFF8B804B0F935
S1133500000040420500DFF854040580DFF88C0415
S11335100078DFF88C1409780843C0B2002805D17C
S1133520DFF830040088DFF87C14088070BD0000E8
S1133530E343FF1F9A43FF1FBC04FF1F9C43FF1F6D
S1133540B704FF1FD643FF1FE023FF1FF442FF1FF2
S1133550B404FF1FB504FF1F8C42FF1FF8B50024FD
S1133560002500260027DFF8080400881528C0F28B
S1133570E381DFF8440D0078C01C0600B6B2DFF822
S1133580F0030088C01E86425FDADFF88C0DB6B205
S1133590305CDFF8841DB6B2711811F8011C401AB2
S11335A000B2FDF75CF8042848DADFF86C0DB6B217
S11335B0305CDFF8641DB6B2711811F8021C401AB1
S11335C000B2FDF74CF8042838DADFF84C0DB6B237
S11335D0305CDFF8441DB6B2711811F8031C401AB0
S11335E000B2FDF73CF8042828DADFF82C0DB6B257
S11335F030184078DFF8201DB6B2715C401A0928F3
S11336001CDBDFF8140DB6B230188078DFF8081D23
S1133610B6B2715C401A082810DBDFF8FC0CB6B2B5
S11336203018C078DFF8F01CB6B2715C401A072875
S113363004DB0120D6490870340006E00020D44998
S1133640087000200400761C98E7DFF86C0C007802
S1133650C01C0600B6B2C6480088C01E864253DAB3
S1133660B648B6B2305CB549B6B2711811F8011C4F
S1133670401A00B2FCF7F3FF04283EDAAF48B6B2B2
S1133680305CAE49B6B2711811F8021C401A00B28F
S1133690FCF7E5FF042830DAA848B6B2305CA74945
S11336A0B6B2711811F8031C401A00B2FCF7D7FF28
S11336B0042822DAA148B6B2305CA049B6B2711827
S11336C04978401A092818DB9C48B6B2305C9B49FB
S11336D0B6B271188978401A08280EDB9748B6B23A
S11336E0305C9649B6B27118C978401A072804DBD1
S11336F00120A8490870350006E00020A54908709B
S113370000200500761CA5E7A1480078A1490978A6
S113371091F0010108424DD0DFF8000C40680068C8
S113372030F48060DFF8F41B49680860DFF8880B28
S1133730007806008E480088B6B2B042C0F0FC8023
S1133740DFF8D40BA4B22018C078A4B2E11CB6B23E
S1133750891B0022514351FA80F007003FB2012F28
S113376002DA0020070004E03FB24E2F01DB4E20B6
S11337700700DFF8A40BB6B23754DFF89C0BB6B2DF
S1133780305C6E49B6B2715C0818022190FBF1F00E
S113379007003FB2012F02DA0020070004E03FB225
S11337A09C2F01DB9C200700DFF8640EB6B237546F
S11337B0761CBFE7774800787549097891F00101D4
S11337C008424BD0DFF8540B4068006830F4806046
S11337D0DFF8481B49680860DFF8DC0A0078060057
S11337E063480088B6B2B042C0F0A6805348ADB278
S11337F02818C078B6B2ADB2711BC91E002251435D
S113380051FA80F007003FB24F2F02DA4E20070032
S113381004E03FB29C2F01DB9C2007004748B6B26E
S11338203754DFF8F40AB6B2305C4449B6B2715C7E
S11338300818022190FBF1F007003FB2012F02DAD1
S11338400020070004E03FB29C2F01DB9C2007000E
S1133850DFF8BC0DB6B23754761CC1E74D4800788A
S11338604B490978084267D0DFF8B00A406800681D
S113387030F48060DFF8A41A49680860DFF8380A79
S1133880007806003A480088B6B2B04254D3DFF854
S1133890880AA4B22018C078A4B2E11CB6B2891B6D
S11338A00022514351FA80F007003FB2012F02DA9F
S11338B00020070004E03FB24E2F01DB4E2007003A
S11338C0DFF8540AB6B237541C48ADB22818C07891
S11338D0B6B2ADB2711BC91E0022514351FA80F039
S11338E007003FB24F2F02DA4E20070004E03FB238
S11338F09C2F01DB9C2007001048B6B23754DFF838
S1133900180AB6B2305C0D49B6B2715C08180221CF
S113391090FBF1F007003FB2012F02DA002007000C
S113392004E03FB29C2F01DB9C200700DFF8E00C91
S1133930B6B23754761CA5E7F1BD0000C042FF1FA4
S1133940EE43FF1FED43FF1FDA43FF1FA843FF1F92
S1133950AA43FF1FA643FF1FB243FF1F9E43FF1F3F
S1133960A043FF1F5C43FF1F8043FF1F7E43FF1FD5
S1133970A243FF1F7404FF1F6C04FF1F8243FF1F39
S11339806E04FF1F8443FF1F7004FF1F7204FF1F98
S1133990F143FF1FF243FF1FE043FF1FEF43FF1FED
S11339A0F043FF1FAC43FF1FC004FF1FC0F9FFFF1C
S11339B0F443FF1FC204FF1F2DE9F0470026002037
S11339C0002100220023002400250027DFF844CC36
S11339D0BCF800C0BCF11F0F0BDB5FF0000CDFF87C
S11339E038EC8EF800C05FF0000CDFF830EC8EF895
S11339F000C0DFF8C4C89CF800C01CF1050C644684
S1133A00A4B2DFF810CCBCF800C0BCF1060C6445CD
S1133A1080F26A82DFF808CCA4B214EB0C0C1CF818
S1133A2003CCBCF1030F40F05D82DFF8F4CBA4B209
S1133A3014EB0C0C1CF802CCBCF1030F40F05282C6
S1133A40DFF8DCCBA4B214EB0C0C1CF801CCBCF1F9
S1133A50030F40F04782DFF8C8CBA4B214F80CC0BF
S1133A60BCF1030F00F03E82DFF8B4CBA4B214EB38
S1133A700C0C9CF801C0BCF1030F00F03382DFF89A
S1133A80A0CBA4B214EB0C0C9CF802C0BCF1030F45
S1133A9000F02882DFF888CBA4B214F80CC0BCF183
S1133AA0000F40F00D81DFF878CBA4B214EB0C0CBE
S1133AB09CF801C0BCF1000F40F00281DFF860CB3C
S1133AC0A4B214EB0C0C9CF802C0BCF1000F40F043
S1133AD0F780DFF844C8A4B214F80CC0BCF10B0F93
S1133AE0C0F2EE80DFF83CCBA4B214F80CC0BCF1F9
S1133AF0930F80F2E58025002F00BFB2ADB215F11F
S1133B000A0C674580F2A180DFF80CC8BFB217F831
S1133B100CC0BCF1070FC0F29680DFF80CCB9CF808
S1133B2000C0DFF808EBBFB25FF09D0808FB07EEAA
S1133B30DFF8E487BFB217F8088018EB0E0E1EF802
S1133B4001ECF44580F07F80DFF8DCCA9CF800C00B
S1133B50DFF8D8EABFB25FF09D0808FB07EEDFF894
S1133B60B887BFB217F8088018EB0E0E1EF802ECE7
S1133B70F44568D2DFF8B0CA9CF800C0DFF8ACEABC
S1133B80BFB25FF09D0808FB07EEDFF88C87BFB279
S1133B9017F8088018EB0E0E1EF803ECF44552D209
S1133BA0DFF884CA9CF800C0DFF880EABFB25FF097
S1133BB09D0808FB07EEDFF86087BFB217F808809E
S1133BC018EB0E0E1EF804ECF4453CD2DFF858CA8C
S1133BD09CF800C0DFF854EABFB25FF09D0808FB10
S1133BE007EEDFF83487BFB217F8088018EB0E0E23
S1133BF01EF805ECF44526D2DFF82CCA9CF800C068
S1133C00DFF828EABFB25FF09D0808FB07EEDFF893
S1133C100887BFB217F8088018EB0E0E1EF806ECE2
S1133C20F44510D2DFF8F8C9BFB217F80CC0BCF1E4
S1133C30020F08D0DFF8E8C9BFB217F80CC0BCF116
S1133C40010F00D0761C7F1C57E7B6B2082EC0F2D5
S1133C504981DFF8BCC9DFF8BCE9BEF800E01EF812
S1133C600CC0BCF1240FC0F23D81DFF8A4C9DFF819
S1133C70A4E9BEF800E01EF80CC0BCF14E0F80F2BF
S1133C803181DFF8A0C9DFF88CE9BEF800E01EF846
S1133C900CC0DFF884E6DFF87C89B8F8008018F8F7
S1133CA00EE0BCEB0E0CBCF1280F80F21B815FF020
S1133CB0010CDFF864E98EF800C0ADB22A0013E10C
S1133CC0DFF85CC9A4B214F80CC0BCF1010F40F0D9
S1133CD00981DFF84CC9A4B214EB0C0C9CF801C0A8
S1133CE0BCF1010F40F0FE80DFF834C9A4B214EB3C
S1133CF00C0C9CF802C0BCF1010F40F0F380DFF81B
S1133D0024C9A4B214F80CC0BCF1930F80F2EA8069
S1133D10DFF804C6A4B214F80CC0BCF10B0FC0F257
S1133D20E18025002F00BFB2ADB215F10A0C674542
S1133D3080F2A180DFF8ECC8BFB217F80CC0BCF168
S1133D40960F80F29680DFF8E0C89CF800C0DFF898
S1133D50DCE8BFB25FF09D0808FB07EEDFF8C4881B
S1133D60BFB217F8088018EB0E0E9EF801E0F44578
S1133D7080F07F80DFF8B0C89CF800C0DFF8ACE8C2
S1133D80BFB25FF09D0808FB07EEDFF89888BFB26A
S1133D9017F8088018EB0E0E9EF802E0F44568D27E
S1133DA0DFF884C89CF800C0DFF880E8BFB25FF099
S1133DB09D0808FB07EEDFF86C88BFB217F808808F
S1133DC018EB0E0E9EF803E0F44552D2DFF858C803
S1133DD09CF800C0DFF854E8BFB25FF09D0808FB10
S1133DE007EEDFF84088BFB217F8088018EB0E0E14
S1133DF09EF804E0F4453CD2DFF82CC89CF800C0DF
S1133E00DFF828E8BFB25FF09D0808FB07EEDFF893
S1133E101488BFB217F8088018EB0E0E9EF805E060
S1133E20F44526D2DFF800C89CF800C0DFF8FCE7B0
S1133E30BFB25FF09D0808FB07EEDFF8E887BFB26A
S1133E4017F8088018EB0E0E9EF806E0F44510D221
S1133E50DFF8CCC7BFB217F80CC0BCF1020F08D012
S1133E60DFF8BCC7BFB217F80CC0BCF1000F00D01C
S1133E70401C7F1C57E780B2082833DBDFF890C76B
S1133E80DFF890E7BEF800E01EF80CC0BCF14F0F5D
S1133E9028DBDFF87CC7DFF87CE7BEF800E01EF81B
S1133EA00CC0BCF1790F1DDADFF878C7DFF864E7DE
S1133EB0BEF800E01EF80CC0DFF85CE4DFF85487BD
S1133EC0B8F8008018F80EE0BCEB0E0CBCF1280F1B
S1133ED008DA5FF0010CDFF844E78EF800C0ADB2F9
S1133EE02A0001E0641C8BE5DFF82CC79CF800C0B5
S1133EF0DFF828E79EF800E05EEA0C0C5FFA8CFC21
S1133F00BCF1000F06D05FF0010CDFF8D8EA8EF8A0
S1133F1000C005E05FF0000CDFF8C8EA8EF800C0CE
S1133F20DFF8F0C6BCF800C0DFF8BCEA9EF800E099
S1133F301FFA8EFEF4450BD35FF0000CDFF8D8E6D1
S1133F408EF800C05FF0000CDFF8D0E68EF800C0F9
S1133F50DFF8C4C69CF800C0BCF1000F00F0B980C3
S1133F60DFF8B8C3DCF804C0DCF800C03CF4806CB3
S1133F70DFF8A8E3DEF804E0CEF800C0DFF838C3C9
S1133F809CF800C0BCF1030C624556D0002A54D002
S1133F90DFF824C39CF800C06446DFF878C6BCF898
S1133FA000C0A4B2A445C0F06281DFF840CA9CF806
S1133FB000C0DFF85CE6DFF8008398F8008018F8AA
S1133FC00EE01EEB0C0CA4B2DFF8ECE29EF800E06D
S1133FD0B4EB0E0EDFF8408312EB080898F8038068
S1133FE0DFF82C96DFF8D0A29AF800A01AF809900E
S1133FF0B8EB090808FB0EFE12F10308DFF8B892CB
S113400099F80090B8EB09089EFBF8FE1EEB0C0C27
S1134010614609B2012903DA5FF0000C614605E04C
S113402009B24E2902DB5FF04E0C6146DFF8E0C5B1
S1134030A4B204F80C10641CAFE7002A40F0178106
S1134040DFF874C29CF800C06446DFF8C8C5BCF849
S113405000C0A4B2A44512D3DFF8C4C5A4B214F8B6
S11340600CC0BCF1000F07D0DFF8ACC2A4B214F846
S11340700CC0BCF1020F00DA5B1C641CE5E7DFF83E
S113408038C29CF800C0DFF88CE5BEF800E01EEBF7
S11340900C0C5FF0030E9CFBFEFC9BB26345C0F26C
S11340A0E680DFF814C29CF800C06446DFF864C5FB
S11340B0BCF800C0A4B2A445C0F0D980DFF82CC974
S11340C09CF800C0DFF848E5A4B204F80EC0641CF4
S11340D0ECE7DFF848C59CF800C0BCF1000F00F025
S11340E0B880DFF838C2DCF804C0DCF800C03CF467
S11340F0806CDFF828E2DEF804E0CEF800C0DFF8D8
S1134100B8C19CF800C0BCF1030C624556D0002A2B
S113411054D0DFF8A4C19CF800C06446DFF8F4C4AE
S1134120BCF800C0A4B2A445C0F0A180DFF8E0C48C
S1134130DFF884E19EF800E01EF80CC0DFF8ACE87C
S11341409EF800E0BCEB0E0CA4B2DFF86CE19EF824
S113415000E0B4EB0E0EDFF8CC8412EB080898F8FC
S11341600380DFF8AC94DFF850A19AF800A01AF8A5
S11341700990B8EB090808FB0EFE12F10308DFF8FA
S1134180389199F80090B8EB09089EFBF8FE1EEBF5
S11341900C0C614609B24F2903DA5FF04E0C6146FC
S11341A005E009B29C2902DB5FF09C0C6146DFF854
S11341B060C4A4B204F80C10641CAFE7002A56D102
S11341C0DFF8F4C09CF800C06446DFF848C4BCF8CB
S11341D000C0A4B2A44512D3DFF844C4A4B214F8B6
S11341E00CC0BCF1010F07D0DFF838C4A4B214F836
S11341F00CC0BCF19B0F00DB5B1C641CE5E7DFF823
S1134200B8C09CF800C0DFF80CE4BEF800E01EEB78
S11342100C0C5FF0030E9CFBFEFC9BB2634526DB9B
S1134220DFF894C09CF800C06446DFF8E8C3BCF82B
S113423000C0A4B2A4451AD3DFF8B0C79CF800C0EC
S1134240DCF19D0CDFF8C8E3A4B204F80EC0641CD2
S1134250EBE7DFF8C8C0DCF804C0DCF800C05CF4AD
S1134260806CDFF8B8E0DEF804E0CEF800C0BDE80A
S1134270F08780B502220E21002001F017FE0A23E8
S113428002220E21002001F0E7FD01F073FEDFF8A9
S11342901C28DFF81C3801F095FE0022DFF81438E2
S11342A002F01EF801F0D4FFDFF8A81B086000201C
S11342B001F020FE01BD0000D643FF1F10B500240D
S11342C002220A21012001F0F1FD1E2302220A210B
S11342D0012001F0C1FDDFF8E0170860012001F0C2
S11342E009FE32200400E4B2002C02D000BF641E98
S11342F0F9E702220B21012001F0D8FD322302222A
S11343000B21012001F0A8FDDFF8AC174860012063
S113431001F0F0FD10BD00008C42FF1F1804FF1FC8
S11343202DE9F84F0024DFF89007406801F022FEE1
S11343300022DFF8883701F045FE01F089FFDFF83D
S113434080170860DFF87C070068DFF874170968D5
S113435002F016F9DFF870170860DFF86C070068E0
S1134360DFF8681702F080F9DFF864170860DFF8F7
S113437060070068DFF85C1702F0F4F904D85FF016
S11343807E50DFF84C170860DFF844070068DFF858
S1134390481702F0E3F804D2DFF83C07DFF83017DF
S11343A00860DFF82C07006801F0E4FD02F0ECF986
S11343B0DFF82827DFF8283701F004FE01F048FF72
S11343C0DFF82017086002200400A4B2002C0DD0EE
S11343D0DFF81407A4B210EB840050F8040CDFF8E3
S11343E00817A4B241F82400641EEEE7DFF8F406CF
S11343F00068DFF8F4160860DFF8EC060168DFF8FF
S1134400E806406802F03CFA01F0B4FD00225FF0D7
S1134410804301F065FF01F01BFFDFF8C816086058
S1134420DFF89406006801F0A5FD0022DFF88C3661
S113443001F0C8FD01F00CFFDFF8B0160860DFF8EA
S1134440B00600688146DFF8AC0600688046DFF8F5
S11344509C06006805004046494602F07FF801D2F8
S11344604E4600E046462800310002F077F800D3BB
S11344702E004846414602F071F801D24F4600E052
S113448047463800290002F069F800D32F003800AD
S1134490494602F063F808D24846310002F05EF85B
S11344A003D2DFF84806C0F800903800414602F015
S11344B055F808D24046310002F050F803D2DFF834
S11344C02C06C0F800803800290002F047F807D213
S11344D02800310002F042F802D2DFF8100605602D
S11344E0DFF810060068DFF808160860DFF8FC053E
S11344F00068DFF800160860DFF8F0050068DFF8F0
S1134500F815096802F03CF8DFF8F0150860DFF8E8
S1134510EC05006801F02EFDDFF8E425DFF8E43552
S113452001F0DEFE01F094FEDFF8DC150860DFF830
S1134530D409006801F01EFD82468B46DFF8CC05E5
S11345400168DFF8C405006802F0DCF90090DFF8C8
S113455094050068DFF8AC19096802F011F80099B5
S113456002F08EF901F006FDDFF8EC28DFF8EC38F4
S113457001F028FD52465B4601F0F6FD01F068FEAD
S1134580DFF880190860BDE8F18F10B5DFF8EC0A98
S11345900088DFF8CC1808801F4800781F49097884
S11345A00843C0B200280CD0DFF8B8080068DFF870
S11345B0B8180860DFF8B4080068DFF8B4180860B9
S11345C00BE0DFF8B0080068DFF89C180860DFF83B
S11345D038090068DFF898180860DFF828090168CE
S11345E0DFF88408006802F08DF90400DFF8800821
S11345F00168DFF81405006802F084F9210002F074
S11346003FF902F0EBF9DFF8741A088010BD0000DE
S1134610F442FF1FA243FF1FEF43FF1FF043FF1F9E
S11346202843FF1FC042FF1FB604FF1FE023FF1FE4
S113463080B5DFF80C090068DFF808190880DFF896
S113464008090068C043401CDFF8001908800020F6
S1134650DFF8EC1808600020DFF8EC180860DFF8D9
S1134660EC08B0F9000002F0DBF9DFF8E428DFF829
S1134670E43801F0A7FC01F0EBFDDFF8DC1808607A
S1134680DFF8C008B0F9000002F0CAF9DFF8C0286A
S1134690DFF8C03801F096FC01F0DAFDDFF8BC1851
S11346A00860DFF8B8080168DFF8AC08006802F0B9
S11346B0E7F85FF0804101F0D7FFDFF8A418086045
S11346C0DFF8A008008801F039FFDFF894180968C2
S11346D001F056FFDFF890180860DFF890080088B2
S11346E001F02CFFDFF88018096801F037FF07D2CA
S11346F0DFF87808008801F021FFDFF86C18086003
S1134700DFF868080088404201F00EFF0100DFF87E
S11347105808006801F022FF08D2DFF8500800882A
S1134720404201F001FFDFF840180860DFF840085C
S11347300168DFF83408006802F0E4F8DFF83418A0
S11347400860DFF834080068DFF8301801F006FF6D
S113475017D2DFF824080068DFF8241802F002F802
S11347600FD8DFF81C090168DFF8FC07006802F0C5
S1134770C9F8DFF80418096802F082F8DFF8F817BE
S11347800860DFF800090068DFF8FC180860DFF84B
S1134790E4070168DFF8E007006802F071F8DFF869
S11347A0E418086001BD10B5DFF8D8080068DFF828
S11347B0D818096801F0E4FE0400DFF8D008008886
S11347C0401C01F0B1FE210002F09CF8DFF8C01893
S11347D001F04AFFDFF8B018096802F051F802F05E
S11347E0FDF8DFF8B018088010BD10B57D480078DA
S11347F0002805D0DFF8A008DFF8A018086004E05E
S11348005FF07E50DFF894180860DFF894080078B1
S1134810DFF89018097891F001010843C0B200282C
S113482003D00020DFF880180880DFF85008B0F9C2
S1134830000001F079FE0400DFF85808B0F9000028
S113484001F072FEDFF85418096802F05BF8010009
S1134850200001F095FE0400DFF84C08B0F90000D8
S113486001F062FE0100200001F08AFE02F0B6F8B9
S1134870DFF838180880DFF80408B0F9000001F008
S113488053FE0400DFF80C08B0F9000001F04CFE00
S1134890DFF80818096802F035F80100200001F07B
S11348A06FFE0400DFF80008B0F9000001F03CFEE0
S11348B0210001F0E5FF02F091F8DFF8F417097820
S11348C04018DFF8F0170880DFF8EC070078DFF80D
S11348D0EC1709780843C0B2002807D00020DFF89D
S11348E0CC1708800020DFF8CC170880DFF8BC075D
S11348F0B0F9000040F6C511884204DB40F6C4104C
S1134900DFF8A8170880DFF8A407B0F90000DFF883
S1134910B017884204DADFF8A807DFF89017088098
S1134920DFF89007B0F9000040F6C511884204DBB7
S113493040F6C410DFF87C170880DFF87807B0F978
S11349400000DFF87C17884204DADFF87407DFF828
S113495064170880DFF85407B0F9000001280ADB67
S1134960DFF84807B0F90000DFF8581708600020A6
S1134970DFF854170860DFF83407B0F900000128A5
S11349800BDA0020DFF83C170860DFF82007B0F9E5
S113499000004042DFF830170860DFF81807B0F96C
S11349A0000001280ADB0020DFF820170860DFF888
S11349B00407B0F90000DFF8DC1B0860DFF8F40638
S11349C0B0F9000001280BDADFF8E806B0F90000BE
S11349D04042DFF8F81608600020DFF8B81B0860D2
S11349E010BD0000F343FF1FC804FF1FC904FF1FCD
S11349F030B4DFF8DC064FF49641DFF8D84624687B
S1134A0054F48064DFF8CC562C60DFF8CC4624687C
S1134A1054F44074DFF8C0562C60DFF8C0462468B4
S1134A2054F44074DFF8B4562C60DFF8B4462468BC
S1134A3054F48064DFF8A8562C604FF47A7404FBB5
S1134A4000F40D01B4FBF5F4220092B2141214F038
S1134A501F04DFF890562C70DFF88C4622704FF458
S1134A60FA4404FB00F40D01B4FBF5F492B2B4EB88
S1134A704214230013F01F04DFF870562C70DFF883
S1134A800C4D247854F00C04DFF8005D2C700024E5
S1134A90DFF85C562C70DFF8F44C247854F02004D2
S1134AA0DFF8E85C2C7030BC704700005C8FC2F506
S1134AB028DC224000009040F804FF1F00C8094091
S1134AC0E804FF1FE004FF1F0805FF1F000048441F
S1134AD00005FF1F0100803F000080BF144C77B623
S1134AE0D7A54C400405FF1F6443FF1FEC04FF1FC0
S1134AF07043FF1F7443FF1FF404FF1F0C05FF1FC7
S1134B00BC74931804560B40F004FF1F4404FF1FA9
S1134B1038B50024002572B6DFF8740C007801283B
S1134B2040F0BA80DFF8700A00780006FAD5012058
S1134B30DFF8681A0870DFF8600A00780006FAD512
S1134B40CC48006801F04AFF80B2000ADFF84C1A32
S1134B500870DFF8440A00780006FAD5C5480068F2
S1134B6001F03CFFDFF8341A0870DFF82C0A0078F3
S1134B700006FAD5DFF89003006801F02FFFDFF894
S1134B801C1A0870DFF8100A00780006FAD5DFF85E
S1134B90100A008880B2000ADFF8001A0870DFF8F3
S1134BA0F80900780006FAD5DFF8F4090088DFF880
S1134BB0EC190870DFF8E00900780006FAD5DFF890
S1134BC0E409008880B2000ADFF8D0190870DFF821
S1134BD0C80900780006FAD5DFF8C8090088DFF8AC
S1134BE0BC190870DFF8B00900780006FAD5E0486F
S1134BF0006801F0F3FEDFF8A4190870DFF89809E3
S1134C0000780006FAD5DFF878040168DFF898091F
S1134C1001F078FE01F0E2FEDFF880190870DFF899
S1134C20780900780006FAD5CD48006801F0D6FE70
S1134C30DFF868190870DFF8600900780006FAD513
S1134C40DFF86809006801F0C9FE80B2000ADFF8E5
S1134C504C190870DFF8400900780006FAD5DFF82F
S1134C604C09006801F0BAFEDFF830190870DFF86B
S1134C70280900780006FAD576480168DFF8280983
S1134C8001F040FE01F0AAFEDFF8101908700020C0
S1134C90DFF8FC1A0870DBE0DFF8F40A0078022879
S1134CA020D1DFF80C090078002809D1DFF8E808E2
S1134CB000780006FAD50A20DFF8E018087008E04A
S1134CC0DFF8D40800780006FAD51420DFF8CC18F1
S1134CD00870DFF8DC08007890F00100DFF8D018E5
S1134CE00870B5E0DFF8A80A007803282DD1DFF8B2
S1134CF0C4080078002813D1DFF89C080078000667
S1134D00FAD5DFF8B4080088DFF890180870DFF8E7
S1134D10A408007890F00100DFF89818087097E074
S1134D20DFF8740800780006FAD58D48006801F0B1
S1134D3055FEDFF868180870DFF87808007890F0FE
S1134D400100DFF87018087082E0DFF8440A007888
S1134D5004287DD1DFF8400800780006FAD5DFF892
S1134D60340A0078DFF834180870DFF82C0800786B
S1134D700006FAD53220DFF824180870DFF8180886
S1134D8000780006FAD59D20DFF81018087031204D
S1134D900400002C19D4002005009D2D13DADFF83F
S1134DA0F80700780006FAD5DFF8EC099D2101FB2D
S1134DB00400285CDFF8E4170870DFF8E009FBF76B
S1134DC045FB6D1CE9E7641EE3E731200400002C79
S1134DD010D4DFF8C40700780006FAD5DFF8C0095C
S1134DE0205CDFF8B8170870DFF8B009FBF72EFB7A
S1134DF0641EECE731200400002C10D4DFF898077F
S1134E0000780006FAD5DFF89C09205CDFF88C17DF
S1134E100870DFF88809FBF719FB641EECE7312002
S1134E200400002C10D4DFF8700700780006FAD5CF
S1134E30DFF87409205CDFF864170870DFF85C0998
S1134E40FBF704FB641EECE70020DFF8441908704C
S1134E5062B631BDE404FF1F7B14AE47E17A543FD0
S1134E608A43FF1F5C04FF1F4C04FF1F6004FF1FE5
S1134E705004FF1F5404FF1F00200021DFF82C29D9
S1134E8012681000020E12F001021100C9B20129C9
S1134E9003D10122824B1A7002E00022804B1A7067
S1134EA0C20E12F001021100C9B2012904D100227C
S1134EB0DFF8FC381A7003E00122DFF8F4381A70C6
S1134EC0820E12F001021100C9B2012904D100229C
S1134ED0DFF8E0381A7003E00122DFF8D8381A70DE
S1134EE0420E12F001021100C9B2012904D10022BC
S1134EF0DFF8743A1A7003E00122DFF86C3A1A7092
S1134F00704700001005FF1F5804FF1FDFF8A818A2
S1134F100988DFF8582A1288891A080000B2DFF8D5
S1134F20501A0988491C01FB00F1102291FBF2F18F
S1134F30DFF8382A12885118DFF8382A11807047B0
S1134F40049003408E43FF1F04800B408C43FF1FDB
S1134F50B81E85EB51B8AE3F1805FF1F1C05FF1F97
S1134F601405FF1FB843FF1F2005FF1F4204FF1F46
S1134F706404FF1F2405FF1F2805FF1F0100FA43D7
S1134F800000FAC380B5DFF8F009008800281FD0BC
S1134F90DFF8E809DFF8E8190860DFF8E809DFF866
S1134FA0E8190860DFF8E4090168DFF8E40901F0B2
S1134FB067FCDFF8E01908605FF07C503049086056
S1134FC0DFF8D40900884630DFF8D019088053E0B0
S1134FD0DFF8A409008800284ED1DFF8C40900884E
S1134FE0002830D0DFF8B8090088401EDFF8B01977
S1134FF008800A20DFF8A4190880DFF8A8090068EF
S1135000DFF87C190860DFF8A0090068DFF8781978
S11350100860DFF878090068DFF878190860DFF8BD
S11350208C0917490860DFF88809B0F90000401FAF
S1135030DFF880190880DFF88009B0F9000008382B
S1135040DFF878190880DFF858090088002813D1A0
S1135050DFF844090088DFF844190880DFF85009B4
S1135060B0F90000DFF84C190880DFF84C09B0F9FA
S11350700000DFF84819088001BD00008843FF1FC5
S11350806804FF1F2C05FF1F3005FF1FB043FF1FDF
S1135090000048429043FF1FCDCCCC3DC404FF1F09
S11350A07A04FF1FC843FF1FB443FF1F9643FF1F2B
S11350B0C943FF1F9443FF1FD943FF1FDA43FF1F58
S11350C03CF6FFFF488003404080034038800340A3
S11350D020BF02003880044040A0044044A00440A3
S11350E03480044000A0064001A006400AA0064007
S11350F002A0064010B582B072B6282001F0A6FCCA
S1135100FBF7F7F9FBF798FA4FF47A7001F09EFC7D
S1135110FBF752FA0A2001F099FC02F037F802F08A
S1135120B5FF03F00AF8DFF898084068006830F427
S11351308060DFF88C1849680860142001F086FC50
S1135140DFF87C084068006850F48060DFF870186D
S11351504968086001F097FDFFF78BF8FFF748FCFA
S1135160FBF79FF9FBF777F9DFF858080068C0F3FD
S1135170005010F00100DFF8501808700020DFF82C
S11351804C1808702D2003F084F8582003F081F89F
S113519062B602F019FAFFF76FFEDFF83408007800
S11351A0002800F09480DFF818084068006850F484
S11351B08060DFF80C1849680860DFF81808008878
S11351C00A2190FBF1F201FB1200002801D102F048
S11351D0FBF902F033FEDFF8CC070068DFF8C813F0
S11351E001F04EFBDFF8F0170860DFF8BC07006839
S11351F05FF07E5101F044FBDFF8E0170860DFF850
S11352009C070088DFF890170880DFF8A80700885B
S1135210DFF89C170880DFF8A4070088DFF89817E8
S11352200880DFF870070068DFF860170860DFF8AF
S113523064050078DFF8A81708700020DFF8A417C9
S113524008700020DFF8A01708700020DFF824178A
S113525008800020DFF8941708800020DFF89017FA
S113526008800020DFF88C170880DFF844050078F8
S1135270002807D0D0480088DFF87C170880FBF7A7
S1135280F7F90FE00020DFF8701708800020DFF83E
S11352906C1708700020DFF8681708700020DFF82A
S11352A0641708703220DFF8D01608800020DFF879
S11352B0581708700020DFF8541708800120DFF821
S11352C050170870B9480068DFF848170860DFF81D
S11352D048070078DFF8F816097891F001010842D0
S11352E03FF459AF01220621012000F017FCDFF83A
S11352F0F806007800281CD10020DFF8FC1608808E
S1135300DFF8EC060088401CDFF8E4160880DFF8BC
S1135310E006008897280CDB0120DFF8CC16087023
S11353200020DFF8CC160880A3480088DFF8C816F0
S11353300880DFF8B4060078002800F02581DFF843
S1135340A4060078002823D1DFF8A006008864288A
S113535010DADFF898060088401CDFF89016088001
S11353600020DFF88016087000220A21012000F0D6
S1135370D5FB0DE0DFF874060088642808DB012003
S1135380DFF86016087001220A21012000F0C6FB34
S1135390DFF8D405007800280DD0DFF8DC0500889C
S11353A0002806D0DFF8D0050088401EDFF8C815B5
S11353B00880FFF7E7FDDFF850060078002816D1D3
S11353C0DFF848060088401CDFF840160880DFF844
S11353D04C060088DFF834160988884207D2012079
S11353E0DFF8241608700020DFF82016088000205B
S11353F08DF800009DF80000322866DA0020DFF8FE
S113540020160870DFF8180600789D2857DA9DF8F2
S113541000000A2824DADFF880039DF800109D229A
S113542002FB0100DFF8F8150978085CB42817DAE4
S11354309DF80000DFF86013C0B29D2202FB00104B
S1135440DFF8DC150978DFF850239DF800309D243F
S113545004FB0322DFF8C8351B789A5C0F320A5428
S1135460CC480078CC499DF800209D2303FB021111
S1135470DFF8AC251278515C88420CD2DFF8A40521
S11354809DF800109D2202FB0100DFF894150978B5
S1135490FF220A540BE0DFF88C059DF800109D22D2
S11354A002FB0100DFF8781509780A220A54DFF8B4
S11354B070050078401CDFF868150870A2E79DF8B5
S11354C00000401C8DF8000094E7FBF72BF9DFF88F
S11354D058050078002805D0FBF7F8FCFCF750FBD2
S11354E0FCF720FFB348007800280BD0FEF736F80D
S11354F0FEF762FADFF810050078002806D0FDF701
S1135500FFFA03E00020DFF8FC140870DFF8F4046D
S11355100078002804D000220A21012000F0FEFABD
S1135520FDF704FDA2480078DFF8D014097891F063
S113553001010840DFF8AC1409780840DFF8EC14E6
S1135540097891F001010840DFF8E414097891F03A
S11355500101C0B2084202D0FBF78AF80DE094487A
S11355600078002809D19D223221DFF8B80401F027
S113557062FD0020DFF884140870FFF7C9FA0022E6
S11355800621012000F0CAFADFF88C040078002814
S1135590FAD100E63080034004A0064007A006408C
S11355A07E43FF1F8043FF1F000020414804FF1F6C
S11355B0F743FF1FF643FF1F4004FF1F10B572B6E9
S11355C0DFF8700400788006FAD5DFF86C04007800
S11355D00400DFF868040078002800F08D80DFF80C
S11355E060040088401CDFF858140880E4B2002CE2
S11355F075D0DFF84C040088012814D0022816D096
S1135600032820D0042826D0052828D0062830D006
S1135610072832D008283AD009283FD00B284ED08A
S11356200C2850D05BE0DFF81C04047057E0DFF86E
S113563014040078E4B254EA002000F075FFDFF8A7
S1135640641308604BE0E4B2200000F077FFDFF859
S11356505813086043E0DFF8F00304703FE0DFF81C
S1135660E8030078E4B254EA0020DFF8E01308808D
S113567035E0DFF8D403047031E0DFF8CC030078C0
S1135680E4B254EA0020DFF8C813088027E0E4B24B
S1135690200000F053FFBF49086020E0E4B220007E
S11356A000F04CFF00F066FC0022DFF8A83300F0A5
S11356B017FE00F0CDFDDFF8A01308600FE0DFF85F
S11356C09C0304700BE0DFF894030078E4B254EA1E
S11356D0002000F029FFDFF888130860FFE7DFF8F7
S11356E0600300880D2807D10020DFF850130870EC
S11356F00020DFF84C130880E4B2402C03D10420CE
S11357002349087040E0E4B2412C03D10020204931
S1135710087039E0E4B2012C03D10120B7490870C4
S113572032E0E4B2422C03D10120194908702BE085
S1135730E4B2432C0AD1C1480078002806D10120E4
S1135740BE4908700020124908701DE0E4B2442CE0
S113575003D102200E49087016E0E4B2452C03D1AF
S113576003200B4908700FE0E4B2462C03D100205B
S11357700749087008E0E4B2882C05D10020944958
S1135780087001200A49087062B610BD03A00640E3
S1135790E443FF1FB604FF1FE023FF1F803801000E
S11357A08C42FF1FC042FF1FF442FF1F10F00F4046
S11357B0DB43FF1FEB43FF1F9E43FF1F10B572B671
S11357C0A848006850F08070A6490860A648008880
S11357D0401CA5490880A5480078002840F0958021
S11357E07A48007800282DD1A1480088401CA0499F
S11357F008807548007873490968090D11F00101A2
S1135800884213D06F480068C0F3005010F00100C4
S11358106D49087001206D49087000209549087091
S113582000209349088000207B4908708E48008836
S11358301028C0F28D8000208B49088001208B49FC
S1135840087085E061480078012816D188480088EE
S1135850401C8749088086480088502802DB0220C3
S11358605A49087080480088102871DB00207E495E
S1135870088001207D4908706AE0544800780228B5
S113588066D17B480088401C7949088078480088A4
S1135890042190FBF1F202FB1102002A2AD100201C
S11358A00400A4B2B4F5A37F15DCA4B2AA2C10DBC7
S11358B07148704909789D2202FB0100A4B2001BC3
S11358C06E49096880F846110320FAF7BFFD00BF4E
S11358D000BF641CE5E767480078401C6549087010
S11358E061480088102805DB00205F4908800120FA
S11358F05E4908705F480078322829D10120464962
S1135900087000203149087022E032480088401CA9
S11359103049088016480088401C15490880FEF765
S1135920CDFCFEF7FDFCFEF730FE51480088401C1C
S11359304F4908804E480088401C4D490880FEF7B6
S113594032FFFFF7E3FAFEF750FF002047490870E3
S113595020480088322804DB00201E490880FEF716
S113596067FE62B610BD0000EC43FF1FA043FF1F9B
S1135970B243FF1FB443FF1FCA04FF1F00000C44BF
S11359804C04FF1FCDCC24415004FF1F7843FF1F5C
S11359900000F0416404FF1F7C43FF1F4204FF1F0B
S11359A0CC04FF1F5404FF1F5804FF1F9A99993E0B
S11359B0BC43FF1F6C04FF1FBE43FF1F7004FF1F87
S11359C01804FF1F50F00F40CA43FF1FCC43FF1FB2
S11359D07A04FF1FB043FF1F5C04FF1F6004FF1F16
S11359E0B504FF1FE943FF1FC843FF1FC043FF1F48
S11359F0C243FF1FC443FF1FB843FF1FD943FF1F08
S1135A00EE43FF1FDA43FF1FEA43FF1FC643FF1F96
S1135A10BF04FF1FE004FF1FCB43FF1FCE04FF1F83
S1135A20F543FF1F3405FF1FD743FF1FF143FF1F3B
S1135A30F243FF1F04A0064007A00640E843FF1FEF
S1135A40B643FF1FE543FF1FE643FF1F7E43FF1FCF
S1135A508043FF1F000024406804FF1FE743FF1F2B
S1135A604804FF1F58A00440AE43FF1FD843FF1F44
S1135A709843FF1FCD43FF1FE023FF1F10F10F408A
S1135A8030B4374CC0B254F82040C9B2D2B252F448
S1135A90807544F82150D40705D5D2B2032A02D028
S1135AA0D2B2132A0DD12F4CC0B254F820406469ED
S1135AB001258D40AC432B4DC0B255F820506C618C
S1135AC02AE0284CC0B254F82040646901258D4076
S1135AD02C43244DC0B255F820506C61DBB2012B2D
S1135AE00DD1204CC0B254F82040246801258D40CB
S1135AF02C431C4DC0B255F820502C600CE0194CBE
S1135B00C0B254F82040246801258D40AC43154DA3
S1135B10C0B255F820502C6030BC704710B4D2B2DB
S1135B20012A0DD10F4BC0B253F820301B68012459
S1135B308C4023430B4CC0B254F8204023600CE04B
S1135B40084BC0B253F820301B6801248C40A34397
S1135B50044CC0B254F82040236010BC70470000CD
S1135B602C04FF1F1804FF1FC0B2002803D0012813
S1135B7000F0A9804CE1DFF89823126852F000622B
S1135B80DFF88C331A60DFF88C23126832F090024D
S1135B90DFF880331A600022DFF878331A60C9B264
S1135BA00A00121F46D0121F012A0DD9921E012A83
S1135BB01CD9921E012A2BD9921E4DD0521E5DD0A3
S1135BC0921E012A6CD97CE0DFF84C23126852F44F
S1135BD08062DFF844331A600022C9B28B0003F1FB
S1135BE0804313F5942343F8202C6BE0DFF828233B
S1135BF0126852F40072DFF820331A600022C9B22E
S1135C008B0003F1804313F5922343F80C2C59E0E5
S1135C10DFF80423126852F48062DFF8FC321A6061
S1135C200022C9B28B0003F1804313F5942343F897
S1135C30282C47E0DFF8E022126852F40062DFF813
S1135C40D8321A600022C9B28B0003F1804313F5E5
S1135C50962343F8082C35E0DFF8BC22126852F48E
S1135C600062DFF8B4321A600022C9B28B0003F17B
S1135C70804313F5962343F8382C23E0DFF8982269
S1135C80126852F40062DFF890321A600022C9B23E
S1135C908B0003F1804313F5962343F8382C11E06D
S1135CA0DFF87422126852F40052DFF86C321A6082
S1135CB00022C9B28B0003F1804313F59A23DA6101
S1135CC000E0A5E0A4E0DFF85422126852F000627C
S1135CD0DFF848321A60DFF83C22126832F41042CE
S1135CE0DFF830321A600022DFF828321A60C9B2B5
S1135CF00A00121F032A0FD9121F012A1ED9921E4D
S1135D002ED0521E3ED0521E012A4DD9921E012A77
S1135D105CD9D21E6CD07AE0DFF8FC21126852F410
S1135D200052DFF8F4311A600022C9B28B0003F18B
S1135D30804313F59A2343F8102C68E0DFF8D82148
S1135D40126852F48062DFF8D0311A600022C9B2BE
S1135D508B0003F1804313F5942343F8202C56E081
S1135D60DFF8B421126852F48062DFF8AC311A60B3
S1135D700022C9B28B0003F1804313F5942343F846
S1135D80182C44E0DFF89021126852F48062DFF8A6
S1135D9088311A600022C9B28B0003F1804313F5E5
S1135DA0942343F8182C32E0DFF86C21126852F483
S1135DB08062DFF864311A600022C9B28B0003F1FB
S1135DC0804313F5942343F8182C20E0DFF848218E
S1135DD0126852F48062DFF840311A600022C9B2BE
S1135DE08B0003F1804313F5942343F8182C0EE041
S1135DF0DFF82421126852F40072DFF81C311A60B3
S1135E000022DFF81C31C9B243F82120FFE7FFE785
S1135E10704730B403000020DFF80841DBB254F8C7
S1135E20234024682406F7D5DFF8F840DBB254F8A1
S1135E30234024692000DFF8EC40DBB254F823400F
S1135E40246834F08004DFF8DC50DBB255F82350CA
S1135E502C6080B230BC70472DE9F84304000D007B
S1135E6016001F005FF00008002081465FFA89F9E0
S1135E70FFB2B94510D23200D2B22900C9B2200013
S1135E80C0B2FFF7C6FF00F059FB414600F0F8FC32
S1135E90804619F10109E9E7FFB2380000F04EFB32
S1135EA00100404600F0E0FBBDE8F28370B5040059
S1135EB00D00160015F01F0050F040001A4908723A
S1135EC0B00010F00C0050F0500017490870042086
S1135ED01549487041F234201349488045F27860EE
S1135EE01149888010490F48E4B250F8240000F0AA
S1135EF01DF870BD10B504005F200B4908720A49F3
